{
    "_format": "hh-sol-artifact-1",
    "contractName": "LiteSwapFactory",
    "sourceName": "contracts/LiteSwap/core/LiteSwapFactory.sol",
    "abi": [
        {
            "inputs": [
                {
                    "internalType": "address",
                    "name": "_feeToSetter",
                    "type": "address"
                }
            ],
            "stateMutability": "nonpayable",
            "type": "constructor"
        },
        {
            "anonymous": false,
            "inputs": [
                {
                    "indexed": true,
                    "internalType": "address",
                    "name": "token0",
                    "type": "address"
                },
                {
                    "indexed": true,
                    "internalType": "address",
                    "name": "token1",
                    "type": "address"
                },
                {
                    "indexed": false,
                    "internalType": "address",
                    "name": "pair",
                    "type": "address"
                },
                {
                    "indexed": false,
                    "internalType": "uint256",
                    "name": "",
                    "type": "uint256"
                }
            ],
            "name": "PairCreated",
            "type": "event"
        },
        {
            "inputs": [],
            "name": "INIT_CODE_HASH",
            "outputs": [
                {
                    "internalType": "bytes32",
                    "name": "",
                    "type": "bytes32"
                }
            ],
            "stateMutability": "view",
            "type": "function"
        },
        {
            "inputs": [
                {
                    "internalType": "uint256",
                    "name": "",
                    "type": "uint256"
                }
            ],
            "name": "allPairs",
            "outputs": [
                {
                    "internalType": "address",
                    "name": "",
                    "type": "address"
                }
            ],
            "stateMutability": "view",
            "type": "function"
        },
        {
            "inputs": [],
            "name": "allPairsLength",
            "outputs": [
                {
                    "internalType": "uint256",
                    "name": "",
                    "type": "uint256"
                }
            ],
            "stateMutability": "view",
            "type": "function"
        },
        {
            "inputs": [
                {
                    "internalType": "address",
                    "name": "tokenA",
                    "type": "address"
                },
                {
                    "internalType": "address",
                    "name": "tokenB",
                    "type": "address"
                }
            ],
            "name": "createPair",
            "outputs": [
                {
                    "internalType": "address",
                    "name": "pair",
                    "type": "address"
                }
            ],
            "stateMutability": "nonpayable",
            "type": "function"
        },
        {
            "inputs": [],
            "name": "feeTo",
            "outputs": [
                {
                    "internalType": "address",
                    "name": "",
                    "type": "address"
                }
            ],
            "stateMutability": "view",
            "type": "function"
        },
        {
            "inputs": [],
            "name": "feeToSetter",
            "outputs": [
                {
                    "internalType": "address",
                    "name": "",
                    "type": "address"
                }
            ],
            "stateMutability": "view",
            "type": "function"
        },
        {
            "inputs": [
                {
                    "internalType": "address",
                    "name": "",
                    "type": "address"
                },
                {
                    "internalType": "address",
                    "name": "",
                    "type": "address"
                }
            ],
            "name": "getPair",
            "outputs": [
                {
                    "internalType": "address",
                    "name": "",
                    "type": "address"
                }
            ],
            "stateMutability": "view",
            "type": "function"
        },
        {
            "inputs": [
                {
                    "internalType": "address",
                    "name": "_feeTo",
                    "type": "address"
                }
            ],
            "name": "setFeeTo",
            "outputs": [],
            "stateMutability": "nonpayable",
            "type": "function"
        },
        {
            "inputs": [
                {
                    "internalType": "address",
                    "name": "_feeToSetter",
                    "type": "address"
                }
            ],
            "name": "setFeeToSetter",
            "outputs": [],
            "stateMutability": "nonpayable",
            "type": "function"
        }
    ],
    "bytecode": "0x60806040523480156200001157600080fd5b5060405162005385380380620053858339818101604052810190620000379190620000e9565b80600160006101000a81548173ffffffffffffffffffffffffffffffffffffffff021916908373ffffffffffffffffffffffffffffffffffffffff160217905550506200011b565b600080fd5b600073ffffffffffffffffffffffffffffffffffffffff82169050919050565b6000620000b18262000084565b9050919050565b620000c381620000a4565b8114620000cf57600080fd5b50565b600081519050620000e381620000b8565b92915050565b6000602082840312156200010257620001016200007f565b5b60006200011284828501620000d2565b91505092915050565b61525a806200012b6000396000f3fe60806040523480156200001157600080fd5b5060043610620000a05760003560e01c8063574f2ba3116200006f578063574f2ba31462000141578063a2e74af61462000163578063c9c653961462000183578063e6a4390514620001b9578063f46901ed14620001ef57620000a0565b8063017e7e5814620000a5578063094b741514620000c75780631e3dd18b14620000e9578063257671f5146200011f575b600080fd5b620000af6200020f565b604051620000be919062000a9b565b60405180910390f35b620000d162000233565b604051620000e0919062000a9b565b60405180910390f35b62000107600480360381019062000101919062000af8565b62000259565b60405162000116919062000a9b565b60405180910390f35b6200012962000299565b60405162000138919062000b45565b60405180910390f35b6200014b620002ea565b6040516200015a919062000b73565b60405180910390f35b6200018160048036038101906200017b919062000bc1565b620002f7565b005b620001a160048036038101906200019b919062000bf3565b620003ce565b604051620001b0919062000a9b565b60405180910390f35b620001d76004803603810190620001d1919062000bf3565b62000930565b604051620001e6919062000a9b565b60405180910390f35b6200020d600480360381019062000207919062000bc1565b62000972565b005b60008054906101000a900473ffffffffffffffffffffffffffffffffffffffff1681565b600160009054906101000a900473ffffffffffffffffffffffffffffffffffffffff1681565b600381815481106200026a57600080fd5b906000526020600020016000915054906101000a900473ffffffffffffffffffffffffffffffffffffffff1681565b60405180602001620002ab9062000a48565b6020820181038252601f19601f82011660405250604051602001620002d1919062000cbd565b6040516020818303038152906040528051906020012081565b6000600380549050905090565b600160009054906101000a900473ffffffffffffffffffffffffffffffffffffffff1673ffffffffffffffffffffffffffffffffffffffff163373ffffffffffffffffffffffffffffffffffffffff16146200038a576040517f08c379a0000000000000000000000000000000000000000000000000000000008152600401620003819062000d37565b60405180910390fd5b80600160006101000a81548173ffffffffffffffffffffffffffffffffffffffff021916908373ffffffffffffffffffffffffffffffffffffffff16021790555050565b60008173ffffffffffffffffffffffffffffffffffffffff168373ffffffffffffffffffffffffffffffffffffffff16141562000442576040517f08c379a0000000000000000000000000000000000000000000000000000000008152600401620004399062000da9565b60405180910390fd5b6000808373ffffffffffffffffffffffffffffffffffffffff168573ffffffffffffffffffffffffffffffffffffffff16106200048157838562000484565b84845b91509150600073ffffffffffffffffffffffffffffffffffffffff168273ffffffffffffffffffffffffffffffffffffffff161415620004fb576040517f08c379a0000000000000000000000000000000000000000000000000000000008152600401620004f29062000e1b565b60405180910390fd5b600073ffffffffffffffffffffffffffffffffffffffff16600260008473ffffffffffffffffffffffffffffffffffffffff1673ffffffffffffffffffffffffffffffffffffffff16815260200190815260200160002060008373ffffffffffffffffffffffffffffffffffffffff1673ffffffffffffffffffffffffffffffffffffffff16815260200190815260200160002060009054906101000a900473ffffffffffffffffffffffffffffffffffffffff1673ffffffffffffffffffffffffffffffffffffffff161462000609576040517f08c379a0000000000000000000000000000000000000000000000000000000008152600401620006009062000e8d565b60405180910390fd5b6000604051806020016200061d9062000a48565b6020820181038252601f19601f820116604052509050600083836040516020016200064a92919062000eff565b604051602081830303815290604052805190602001209050808251602084016000f594508473ffffffffffffffffffffffffffffffffffffffff1663485cc95585856040518363ffffffff1660e01b8152600401620006ab92919062000f2f565b600060405180830381600087803b158015620006c657600080fd5b505af1158015620006db573d6000803e3d6000fd5b5050505084600260008673ffffffffffffffffffffffffffffffffffffffff1673ffffffffffffffffffffffffffffffffffffffff16815260200190815260200160002060008573ffffffffffffffffffffffffffffffffffffffff1673ffffffffffffffffffffffffffffffffffffffff16815260200190815260200160002060006101000a81548173ffffffffffffffffffffffffffffffffffffffff021916908373ffffffffffffffffffffffffffffffffffffffff16021790555084600260008573ffffffffffffffffffffffffffffffffffffffff1673ffffffffffffffffffffffffffffffffffffffff16815260200190815260200160002060008673ffffffffffffffffffffffffffffffffffffffff1673ffffffffffffffffffffffffffffffffffffffff16815260200190815260200160002060006101000a81548173ffffffffffffffffffffffffffffffffffffffff021916908373ffffffffffffffffffffffffffffffffffffffff1602179055506003859080600181540180825580915050600190039060005260206000200160009091909190916101000a81548173ffffffffffffffffffffffffffffffffffffffff021916908373ffffffffffffffffffffffffffffffffffffffff1602179055508273ffffffffffffffffffffffffffffffffffffffff168473ffffffffffffffffffffffffffffffffffffffff167f0d3648bd0f6ba80134a33ba9275ac585d9d315f0ad8355cddefde31afa28d0e9876003805490506040516200091e92919062000f5c565b60405180910390a35050505092915050565b60026020528160005260406000206020528060005260406000206000915091509054906101000a900473ffffffffffffffffffffffffffffffffffffffff1681565b600160009054906101000a900473ffffffffffffffffffffffffffffffffffffffff1673ffffffffffffffffffffffffffffffffffffffff163373ffffffffffffffffffffffffffffffffffffffff161462000a05576040517f08c379a0000000000000000000000000000000000000000000000000000000008152600401620009fc9062000d37565b60405180910390fd5b806000806101000a81548173ffffffffffffffffffffffffffffffffffffffff021916908373ffffffffffffffffffffffffffffffffffffffff16021790555050565b61429b8062000f8a83390190565b600073ffffffffffffffffffffffffffffffffffffffff82169050919050565b600062000a838262000a56565b9050919050565b62000a958162000a76565b82525050565b600060208201905062000ab2600083018462000a8a565b92915050565b600080fd5b6000819050919050565b62000ad28162000abd565b811462000ade57600080fd5b50565b60008135905062000af28162000ac7565b92915050565b60006020828403121562000b115762000b1062000ab8565b5b600062000b218482850162000ae1565b91505092915050565b6000819050919050565b62000b3f8162000b2a565b82525050565b600060208201905062000b5c600083018462000b34565b92915050565b62000b6d8162000abd565b82525050565b600060208201905062000b8a600083018462000b62565b92915050565b62000b9b8162000a76565b811462000ba757600080fd5b50565b60008135905062000bbb8162000b90565b92915050565b60006020828403121562000bda5762000bd962000ab8565b5b600062000bea8482850162000baa565b91505092915050565b6000806040838503121562000c0d5762000c0c62000ab8565b5b600062000c1d8582860162000baa565b925050602062000c308582860162000baa565b9150509250929050565b600081519050919050565b600081905092915050565b60005b8381101562000c7057808201518184015260208101905062000c53565b8381111562000c80576000848401525b50505050565b600062000c938262000c3a565b62000c9f818562000c45565b935062000cb181856020860162000c50565b80840191505092915050565b600062000ccb828462000c86565b915081905092915050565b600082825260208201905092915050565b7f556e697377617056323a20464f5242494444454e000000000000000000000000600082015250565b600062000d1f60148362000cd6565b915062000d2c8262000ce7565b602082019050919050565b6000602082019050818103600083015262000d528162000d10565b9050919050565b7f556e697377617056323a204944454e544943414c5f4144445245535345530000600082015250565b600062000d91601e8362000cd6565b915062000d9e8262000d59565b602082019050919050565b6000602082019050818103600083015262000dc48162000d82565b9050919050565b7f556e697377617056323a205a45524f5f41444452455353000000000000000000600082015250565b600062000e0360178362000cd6565b915062000e108262000dcb565b602082019050919050565b6000602082019050818103600083015262000e368162000df4565b9050919050565b7f556e697377617056323a20504149525f45584953545300000000000000000000600082015250565b600062000e7560168362000cd6565b915062000e828262000e3d565b602082019050919050565b6000602082019050818103600083015262000ea88162000e66565b9050919050565b60008160601b9050919050565b600062000ec98262000eaf565b9050919050565b600062000edd8262000ebc565b9050919050565b62000ef962000ef38262000a76565b62000ed0565b82525050565b600062000f0d828562000ee4565b60148201915062000f1f828462000ee4565b6014820191508190509392505050565b600060408201905062000f46600083018562000a8a565b62000f55602083018462000a8a565b9392505050565b600060408201905062000f73600083018562000a8a565b62000f82602083018462000b62565b939250505056fe60806040526001600c553480156200001657600080fd5b5060004690507f8b73c3c69bb8fe3d512ecc4cf759cc79239f7b179b0ffacaa9a75d522b39400f6040518060400160405280600881526020017f5265656673776170000000000000000000000000000000000000000000000000815250805190602001206040518060400160405280600181526020017f3100000000000000000000000000000000000000000000000000000000000000815250805190602001208330604051602001620000cf959493929190620001ae565b604051602081830303815290604052805190602001206003819055505033600560006101000a81548173ffffffffffffffffffffffffffffffffffffffff021916908373ffffffffffffffffffffffffffffffffffffffff1602179055506200020b565b6000819050919050565b620001488162000133565b82525050565b6000819050919050565b62000163816200014e565b82525050565b600073ffffffffffffffffffffffffffffffffffffffff82169050919050565b6000620001968262000169565b9050919050565b620001a88162000189565b82525050565b600060a082019050620001c560008301886200013d565b620001d460208301876200013d565b620001e360408301866200013d565b620001f2606083018562000158565b6200020160808301846200019d565b9695505050505050565b614080806200021b6000396000f3fe608060405234801561001057600080fd5b50600436106101a95760003560e01c80636a627842116100f9578063ba9a7a5611610097578063d21220a711610071578063d21220a7146104db578063d505accf146104f9578063dd62ed3e14610515578063fff6cae914610545576101a9565b8063ba9a7a5614610483578063bc25cf77146104a1578063c45a0155146104bd576101a9565b80637ecebe00116100d35780637ecebe00146103d457806389afcb441461040457806395d89b4114610435578063a9059cbb14610453576101a9565b80636a6278421461035657806370a08231146103865780637464fc3d146103b6576101a9565b806323b872dd116101665780633644e515116101405780633644e515146102e0578063485cc955146102fe5780635909c0d51461031a5780635a3d549314610338576101a9565b806323b872dd1461027457806330adf81f146102a4578063313ce567146102c2576101a9565b8063022c0d9f146101ae57806306fdde03146101ca5780630902f1ac146101e8578063095ea7b3146102085780630dfe16811461023857806318160ddd14610256575b600080fd5b6101c860048036038101906101c39190612d60565b61054f565b005b6101d2610ba1565b6040516101df9190612e81565b60405180910390f35b6101f0610bda565b6040516101ff93929190612eeb565b60405180910390f35b610222600480360381019061021d9190612f22565b610c37565b60405161022f9190612f7d565b60405180910390f35b610240610c4e565b60405161024d9190612fa7565b60405180910390f35b61025e610c74565b60405161026b9190612fd1565b60405180910390f35b61028e60048036038101906102899190612fec565b610c7a565b60405161029b9190612f7d565b60405180910390f35b6102ac610e45565b6040516102b99190613058565b60405180910390f35b6102ca610e6c565b6040516102d7919061308f565b60405180910390f35b6102e8610e71565b6040516102f59190613058565b60405180910390f35b610318600480360381019061031391906130aa565b610e77565b005b610322610f8d565b60405161032f9190612fd1565b60405180910390f35b610340610f93565b60405161034d9190612fd1565b60405180910390f35b610370600480360381019061036b91906130ea565b610f99565b60405161037d9190612fd1565b60405180910390f35b6103a0600480360381019061039b91906130ea565b611383565b6040516103ad9190612fd1565b60405180910390f35b6103be61139b565b6040516103cb9190612fd1565b60405180910390f35b6103ee60048036038101906103e991906130ea565b6113a1565b6040516103fb9190612fd1565b60405180910390f35b61041e600480360381019061041991906130ea565b6113b9565b60405161042c929190613117565b60405180910390f35b61043d611863565b60405161044a9190612e81565b60405180910390f35b61046d60048036038101906104689190612f22565b61189c565b60405161047a9190612f7d565b60405180910390f35b61048b6118b3565b6040516104989190612fd1565b60405180910390f35b6104bb60048036038101906104b691906130ea565b6118b9565b005b6104c5611ae5565b6040516104d29190612fa7565b60405180910390f35b6104e3611b0b565b6040516104f09190612fa7565b60405180910390f35b610513600480360381019061050e9190613198565b611b31565b005b61052f600480360381019061052a91906130aa565b611d59565b60405161053c9190612fd1565b60405180910390f35b61054d611d7e565b005b6001600c5414610594576040517f08c379a000000000000000000000000000000000000000000000000000000000815260040161058b90613286565b60405180910390fd5b6000600c8190555060008511806105ab5750600084115b6105ea576040517f08c379a00000000000000000000000000000000000000000000000000000000081526004016105e190613318565b60405180910390fd5b6000806105f5610bda565b5091509150816dffffffffffffffffffffffffffff16871080156106285750806dffffffffffffffffffffffffffff1686105b610667576040517f08c379a000000000000000000000000000000000000000000000000000000000815260040161065e906133aa565b60405180910390fd5b6000806000600660009054906101000a900473ffffffffffffffffffffffffffffffffffffffff1690506000600760009054906101000a900473ffffffffffffffffffffffffffffffffffffffff1690508173ffffffffffffffffffffffffffffffffffffffff168973ffffffffffffffffffffffffffffffffffffffff161415801561072057508073ffffffffffffffffffffffffffffffffffffffff168973ffffffffffffffffffffffffffffffffffffffff1614155b61075f576040517f08c379a000000000000000000000000000000000000000000000000000000000815260040161075690613416565b60405180910390fd5b60008b111561077457610773828a8d611f4f565b5b60008a111561078957610788818a8c611f4f565b5b6000888890501115610809578873ffffffffffffffffffffffffffffffffffffffff166310d1e85c338d8d8c8c6040518663ffffffff1660e01b81526004016107d6959493929190613483565b600060405180830381600087803b1580156107f057600080fd5b505af1158015610804573d6000803e3d6000fd5b505050505b8173ffffffffffffffffffffffffffffffffffffffff166370a08231306040518263ffffffff1660e01b81526004016108429190612fa7565b602060405180830381865afa15801561085f573d6000803e3d6000fd5b505050506040513d601f19601f8201168201806040525081019061088391906134e6565b93508073ffffffffffffffffffffffffffffffffffffffff166370a08231306040518263ffffffff1660e01b81526004016108be9190612fa7565b602060405180830381865afa1580156108db573d6000803e3d6000fd5b505050506040513d601f19601f820116820180604052508101906108ff91906134e6565b92505050600089856dffffffffffffffffffffffffffff166109219190613542565b831161092e576000610956565b89856dffffffffffffffffffffffffffff1661094a9190613542565b836109559190613542565b5b9050600089856dffffffffffffffffffffffffffff166109769190613542565b83116109835760006109ab565b89856dffffffffffffffffffffffffffff1661099f9190613542565b836109aa9190613542565b5b905060008211806109bc5750600081115b6109fb576040517f08c379a00000000000000000000000000000000000000000000000000000000081526004016109f2906135e8565b60405180910390fd5b6000610a37610a146003856120d990919063ffffffff16565b610a296103e8886120d990919063ffffffff16565b61214690919063ffffffff16565b90506000610a75610a526003856120d990919063ffffffff16565b610a676103e8886120d990919063ffffffff16565b61214690919063ffffffff16565b9050610abf620f4240610ab1896dffffffffffffffffffffffffffff168b6dffffffffffffffffffffffffffff166120d990919063ffffffff16565b6120d990919063ffffffff16565b610ad282846120d990919063ffffffff16565b1015610b13576040517f08c379a0000000000000000000000000000000000000000000000000000000008152600401610b0a90613654565b60405180910390fd5b5050610b218484888861219f565b8873ffffffffffffffffffffffffffffffffffffffff163373ffffffffffffffffffffffffffffffffffffffff167fd78ad95fa46c994b6551d0da85fc275fe613ce37657fb8d5e3d130840159d82284848f8f604051610b849493929190613674565b60405180910390a35050505050506001600c819055505050505050565b6040518060400160405280600881526020017f526565667377617000000000000000000000000000000000000000000000000081525081565b6000806000600860009054906101000a90046dffffffffffffffffffffffffffff1692506008600e9054906101000a90046dffffffffffffffffffffffffffff1691506008601c9054906101000a900463ffffffff169050909192565b6000610c44338484612493565b6001905092915050565b600660009054906101000a900473ffffffffffffffffffffffffffffffffffffffff1681565b60005481565b60007fffffffffffffffffffffffffffffffffffffffffffffffffffffffffffffffff600260008673ffffffffffffffffffffffffffffffffffffffff1673ffffffffffffffffffffffffffffffffffffffff16815260200190815260200160002060003373ffffffffffffffffffffffffffffffffffffffff1673ffffffffffffffffffffffffffffffffffffffff1681526020019081526020016000205414610e2f57610dae82600260008773ffffffffffffffffffffffffffffffffffffffff1673ffffffffffffffffffffffffffffffffffffffff16815260200190815260200160002060003373ffffffffffffffffffffffffffffffffffffffff1673ffffffffffffffffffffffffffffffffffffffff1681526020019081526020016000205461214690919063ffffffff16565b600260008673ffffffffffffffffffffffffffffffffffffffff1673ffffffffffffffffffffffffffffffffffffffff16815260200190815260200160002060003373ffffffffffffffffffffffffffffffffffffffff1673ffffffffffffffffffffffffffffffffffffffff168152602001908152602001600020819055505b610e3a84848461257e565b600190509392505050565b7f6e71edae12b1b97f4d1f60370fef10105fa2faae0126114a169c64845d6126c960001b81565b601281565b60035481565b600560009054906101000a900473ffffffffffffffffffffffffffffffffffffffff1673ffffffffffffffffffffffffffffffffffffffff163373ffffffffffffffffffffffffffffffffffffffff1614610f07576040517f08c379a0000000000000000000000000000000000000000000000000000000008152600401610efe90613705565b60405180910390fd5b81600660006101000a81548173ffffffffffffffffffffffffffffffffffffffff021916908373ffffffffffffffffffffffffffffffffffffffff16021790555080600760006101000a81548173ffffffffffffffffffffffffffffffffffffffff021916908373ffffffffffffffffffffffffffffffffffffffff1602179055505050565b60095481565b600a5481565b60006001600c5414610fe0576040517f08c379a0000000000000000000000000000000000000000000000000000000008152600401610fd790613286565b60405180910390fd5b6000600c81905550600080610ff3610bda565b50915091506000600660009054906101000a900473ffffffffffffffffffffffffffffffffffffffff1673ffffffffffffffffffffffffffffffffffffffff166370a08231306040518263ffffffff1660e01b81526004016110559190612fa7565b602060405180830381865afa158015611072573d6000803e3d6000fd5b505050506040513d601f19601f8201168201806040525081019061109691906134e6565b90506000600760009054906101000a900473ffffffffffffffffffffffffffffffffffffffff1673ffffffffffffffffffffffffffffffffffffffff166370a08231306040518263ffffffff1660e01b81526004016110f59190612fa7565b602060405180830381865afa158015611112573d6000803e3d6000fd5b505050506040513d601f19601f8201168201806040525081019061113691906134e6565b9050600061115d856dffffffffffffffffffffffffffff168461214690919063ffffffff16565b90506000611184856dffffffffffffffffffffffffffff168461214690919063ffffffff16565b905060006111928787612712565b905060008054905060008114156111e6576111d26103e86111c46111bf86886120d990919063ffffffff16565b6128e3565b61214690919063ffffffff16565b98506111e160006103e861295d565b61124d565b61124a886dffffffffffffffffffffffffffff1661120d83876120d990919063ffffffff16565b6112179190613754565b886dffffffffffffffffffffffffffff1661123b84876120d990919063ffffffff16565b6112459190613754565b612a77565b98505b60008911611290576040517f08c379a0000000000000000000000000000000000000000000000000000000008152600401611287906137f7565b60405180910390fd5b61129a8a8a61295d565b6112a686868a8a61219f565b811561131e576113176008600e9054906101000a90046dffffffffffffffffffffffffffff166dffffffffffffffffffffffffffff16600860009054906101000a90046dffffffffffffffffffffffffffff166dffffffffffffffffffffffffffff166120d990919063ffffffff16565b600b819055505b3373ffffffffffffffffffffffffffffffffffffffff167f4c209b5fc8ad50758f13e2e1088ba56a560dff690a1c6fef26394f4c03821c4f8585604051611366929190613117565b60405180910390a250505050505050506001600c81905550919050565b60016020528060005260406000206000915090505481565b600b5481565b60046020528060005260406000206000915090505481565b6000806001600c5414611401576040517f08c379a00000000000000000000000000000000000000000000000000000000081526004016113f890613286565b60405180910390fd5b6000600c81905550600080611414610bda565b50915091506000600660009054906101000a900473ffffffffffffffffffffffffffffffffffffffff1690506000600760009054906101000a900473ffffffffffffffffffffffffffffffffffffffff16905060008273ffffffffffffffffffffffffffffffffffffffff166370a08231306040518263ffffffff1660e01b81526004016114a29190612fa7565b602060405180830381865afa1580156114bf573d6000803e3d6000fd5b505050506040513d601f19601f820116820180604052508101906114e391906134e6565b905060008273ffffffffffffffffffffffffffffffffffffffff166370a08231306040518263ffffffff1660e01b81526004016115209190612fa7565b602060405180830381865afa15801561153d573d6000803e3d6000fd5b505050506040513d601f19601f8201168201806040525081019061156191906134e6565b90506000600160003073ffffffffffffffffffffffffffffffffffffffff1673ffffffffffffffffffffffffffffffffffffffff16815260200190815260200160002054905060006115b38888612712565b9050600080549050806115cf86856120d990919063ffffffff16565b6115d99190613754565b9a50806115ef85856120d990919063ffffffff16565b6115f99190613754565b995060008b11801561160b575060008a115b61164a576040517f08c379a000000000000000000000000000000000000000000000000000000000815260040161164190613889565b60405180910390fd5b6116543084612a90565b61165f878d8d611f4f565b61166a868d8c611f4f565b8673ffffffffffffffffffffffffffffffffffffffff166370a08231306040518263ffffffff1660e01b81526004016116a39190612fa7565b602060405180830381865afa1580156116c0573d6000803e3d6000fd5b505050506040513d601f19601f820116820180604052508101906116e491906134e6565b94508573ffffffffffffffffffffffffffffffffffffffff166370a08231306040518263ffffffff1660e01b815260040161171f9190612fa7565b602060405180830381865afa15801561173c573d6000803e3d6000fd5b505050506040513d601f19601f8201168201806040525081019061176091906134e6565b935061176e85858b8b61219f565b81156117e6576117df6008600e9054906101000a90046dffffffffffffffffffffffffffff166dffffffffffffffffffffffffffff16600860009054906101000a90046dffffffffffffffffffffffffffff166dffffffffffffffffffffffffffff166120d990919063ffffffff16565b600b819055505b8b73ffffffffffffffffffffffffffffffffffffffff163373ffffffffffffffffffffffffffffffffffffffff167fdccd412f0b1252819cb1fd330b93224ca42612892bb3f4f789976e6d819364968d8d604051611845929190613117565b60405180910390a35050505050505050506001600c81905550915091565b6040518060400160405280600581526020017f525357415000000000000000000000000000000000000000000000000000000081525081565b60006118a933848461257e565b6001905092915050565b6103e881565b6001600c54146118fe576040517f08c379a00000000000000000000000000000000000000000000000000000000081526004016118f590613286565b60405180910390fd5b6000600c819055506000600660009054906101000a900473ffffffffffffffffffffffffffffffffffffffff1690506000600760009054906101000a900473ffffffffffffffffffffffffffffffffffffffff169050611a168284611a11600860009054906101000a90046dffffffffffffffffffffffffffff166dffffffffffffffffffffffffffff168673ffffffffffffffffffffffffffffffffffffffff166370a08231306040518263ffffffff1660e01b81526004016119c29190612fa7565b602060405180830381865afa1580156119df573d6000803e3d6000fd5b505050506040513d601f19601f82011682018060405250810190611a0391906134e6565b61214690919063ffffffff16565b611f4f565b611ad88184611ad36008600e9054906101000a90046dffffffffffffffffffffffffffff166dffffffffffffffffffffffffffff168573ffffffffffffffffffffffffffffffffffffffff166370a08231306040518263ffffffff1660e01b8152600401611a849190612fa7565b602060405180830381865afa158015611aa1573d6000803e3d6000fd5b505050506040513d601f19601f82011682018060405250810190611ac591906134e6565b61214690919063ffffffff16565b611f4f565b50506001600c8190555050565b600560009054906101000a900473ffffffffffffffffffffffffffffffffffffffff1681565b600760009054906101000a900473ffffffffffffffffffffffffffffffffffffffff1681565b42841015611b74576040517f08c379a0000000000000000000000000000000000000000000000000000000008152600401611b6b906138f5565b60405180910390fd5b60006003547f6e71edae12b1b97f4d1f60370fef10105fa2faae0126114a169c64845d6126c960001b898989600460008e73ffffffffffffffffffffffffffffffffffffffff1673ffffffffffffffffffffffffffffffffffffffff1681526020019081526020016000206000815480929190611bf090613915565b919050558a604051602001611c0a9695949392919061395e565b60405160208183030381529060405280519060200120604051602001611c31929190613a37565b604051602081830303815290604052805190602001209050600060018286868660405160008152602001604052604051611c6e9493929190613a6e565b6020604051602081039080840390855afa158015611c90573d6000803e3d6000fd5b505050602060405103519050600073ffffffffffffffffffffffffffffffffffffffff168173ffffffffffffffffffffffffffffffffffffffff1614158015611d0457508873ffffffffffffffffffffffffffffffffffffffff168173ffffffffffffffffffffffffffffffffffffffff16145b611d43576040517f08c379a0000000000000000000000000000000000000000000000000000000008152600401611d3a90613aff565b60405180910390fd5b611d4e898989612493565b505050505050505050565b6002602052816000526040600020602052806000526040600020600091509150505481565b6001600c5414611dc3576040517f08c379a0000000000000000000000000000000000000000000000000000000008152600401611dba90613286565b60405180910390fd5b6000600c81905550611f45600660009054906101000a900473ffffffffffffffffffffffffffffffffffffffff1673ffffffffffffffffffffffffffffffffffffffff166370a08231306040518263ffffffff1660e01b8152600401611e299190612fa7565b602060405180830381865afa158015611e46573d6000803e3d6000fd5b505050506040513d601f19601f82011682018060405250810190611e6a91906134e6565b600760009054906101000a900473ffffffffffffffffffffffffffffffffffffffff1673ffffffffffffffffffffffffffffffffffffffff166370a08231306040518263ffffffff1660e01b8152600401611ec59190612fa7565b602060405180830381865afa158015611ee2573d6000803e3d6000fd5b505050506040513d601f19601f82011682018060405250810190611f0691906134e6565b600860009054906101000a90046dffffffffffffffffffffffffffff166008600e9054906101000a90046dffffffffffffffffffffffffffff1661219f565b6001600c81905550565b6000808473ffffffffffffffffffffffffffffffffffffffff166040518060400160405280601981526020017f7472616e7366657228616464726573732c75696e743235362900000000000000815250805190602001208585604051602401611fb9929190613b1f565b604051602081830303815290604052907bffffffffffffffffffffffffffffffffffffffffffffffffffffffff19166020820180517bffffffffffffffffffffffffffffffffffffffffffffffffffffffff83818316178352505050506040516120239190613b8f565b6000604051808303816000865af19150503d8060008114612060576040519150601f19603f3d011682016040523d82523d6000602084013e612065565b606091505b509150915081801561209357506000815114806120925750808060200190518101906120919190613bd2565b5b5b6120d2576040517f08c379a00000000000000000000000000000000000000000000000000000000081526004016120c990613c4b565b60405180910390fd5b5050505050565b6000808214806121015750828283856120f29190613c6b565b9250826120ff9190613754565b145b612140576040517f08c379a000000000000000000000000000000000000000000000000000000000815260040161213790613d11565b60405180910390fd5b92915050565b60008282846121559190613542565b9150811115612199576040517f08c379a000000000000000000000000000000000000000000000000000000000815260040161219090613d7d565b60405180910390fd5b92915050565b6dffffffffffffffffffffffffffff801684111580156121cf57506dffffffffffffffffffffffffffff80168311155b61220e576040517f08c379a000000000000000000000000000000000000000000000000000000000815260040161220590613de9565b60405180910390fd5b6000640100000000426122219190613e09565b905060006008601c9054906101000a900463ffffffff16826122439190613e3a565b905060008163ffffffff1611801561226c57506000846dffffffffffffffffffffffffffff1614155b801561228957506000836dffffffffffffffffffffffffffff1614155b1561238f578063ffffffff166122ce856122a286612baa565b7bffffffffffffffffffffffffffffffffffffffffffffffffffffffff16612bde90919063ffffffff16565b7bffffffffffffffffffffffffffffffffffffffffffffffffffffffff166122f69190613c6b565b600960008282546123079190613e6e565b925050819055508063ffffffff1661234e8461232287612baa565b7bffffffffffffffffffffffffffffffffffffffffffffffffffffffff16612bde90919063ffffffff16565b7bffffffffffffffffffffffffffffffffffffffffffffffffffffffff166123769190613c6b565b600a60008282546123879190613e6e565b925050819055505b85600860006101000a8154816dffffffffffffffffffffffffffff02191690836dffffffffffffffffffffffffffff160217905550846008600e6101000a8154816dffffffffffffffffffffffffffff02191690836dffffffffffffffffffffffffffff160217905550816008601c6101000a81548163ffffffff021916908363ffffffff1602179055507f1c411e9a96e071241c2f21f7726b17ae89e3cab4c78be50e062b03a9fffbbad1600860009054906101000a90046dffffffffffffffffffffffffffff166008600e9054906101000a90046dffffffffffffffffffffffffffff16604051612483929190613ec4565b60405180910390a1505050505050565b80600260008573ffffffffffffffffffffffffffffffffffffffff1673ffffffffffffffffffffffffffffffffffffffff16815260200190815260200160002060008473ffffffffffffffffffffffffffffffffffffffff1673ffffffffffffffffffffffffffffffffffffffff168152602001908152602001600020819055508173ffffffffffffffffffffffffffffffffffffffff168373ffffffffffffffffffffffffffffffffffffffff167f8c5be1e5ebec7d5bd14f71427d1e84f3dd0314c0f7b2291e5b200ac8c7c3b925836040516125719190612fd1565b60405180910390a3505050565b6125d081600160008673ffffffffffffffffffffffffffffffffffffffff1673ffffffffffffffffffffffffffffffffffffffff1681526020019081526020016000205461214690919063ffffffff16565b600160008573ffffffffffffffffffffffffffffffffffffffff1673ffffffffffffffffffffffffffffffffffffffff1681526020019081526020016000208190555061266581600160008573ffffffffffffffffffffffffffffffffffffffff1673ffffffffffffffffffffffffffffffffffffffff16815260200190815260200160002054612c0490919063ffffffff16565b600160008473ffffffffffffffffffffffffffffffffffffffff1673ffffffffffffffffffffffffffffffffffffffff168152602001908152602001600020819055508173ffffffffffffffffffffffffffffffffffffffff168373ffffffffffffffffffffffffffffffffffffffff167fddf252ad1be2c89b69c2b068fc378daa952ba7f163c4a11628f55a4df523b3ef836040516127059190612fd1565b60405180910390a3505050565b600080600560009054906101000a900473ffffffffffffffffffffffffffffffffffffffff1673ffffffffffffffffffffffffffffffffffffffff1663017e7e586040518163ffffffff1660e01b8152600401602060405180830381865afa158015612782573d6000803e3d6000fd5b505050506040513d601f19601f820116820180604052508101906127a69190613f02565b9050600073ffffffffffffffffffffffffffffffffffffffff168173ffffffffffffffffffffffffffffffffffffffff16141591506000600b54905082156128c957600081146128c457600061282d612828866dffffffffffffffffffffffffffff16886dffffffffffffffffffffffffffff166120d990919063ffffffff16565b6128e3565b9050600061283a836128e3565b9050808211156128c157600061286d61285c838561214690919063ffffffff16565b6000546120d990919063ffffffff16565b90506000612897836128896005876120d990919063ffffffff16565b612c0490919063ffffffff16565b9050600081836128a79190613754565b905060008111156128bd576128bc878261295d565b5b5050505b50505b6128db565b600081146128da576000600b819055505b5b505092915050565b6000600382111561294a57819050600060016002846129029190613754565b61290c9190613e6e565b90505b818110156129445780915060028182856129299190613754565b6129339190613e6e565b61293d9190613754565b905061290f565b50612958565b6000821461295757600190505b5b919050565b61297281600054612c0490919063ffffffff16565b6000819055506129ca81600160008573ffffffffffffffffffffffffffffffffffffffff1673ffffffffffffffffffffffffffffffffffffffff16815260200190815260200160002054612c0490919063ffffffff16565b600160008473ffffffffffffffffffffffffffffffffffffffff1673ffffffffffffffffffffffffffffffffffffffff168152602001908152602001600020819055508173ffffffffffffffffffffffffffffffffffffffff16600073ffffffffffffffffffffffffffffffffffffffff167fddf252ad1be2c89b69c2b068fc378daa952ba7f163c4a11628f55a4df523b3ef83604051612a6b9190612fd1565b60405180910390a35050565b6000818310612a865781612a88565b825b905092915050565b612ae281600160008573ffffffffffffffffffffffffffffffffffffffff1673ffffffffffffffffffffffffffffffffffffffff1681526020019081526020016000205461214690919063ffffffff16565b600160008473ffffffffffffffffffffffffffffffffffffffff1673ffffffffffffffffffffffffffffffffffffffff16815260200190815260200160002081905550612b3a8160005461214690919063ffffffff16565b600081905550600073ffffffffffffffffffffffffffffffffffffffff168273ffffffffffffffffffffffffffffffffffffffff167fddf252ad1be2c89b69c2b068fc378daa952ba7f163c4a11628f55a4df523b3ef83604051612b9e9190612fd1565b60405180910390a35050565b60006e010000000000000000000000000000826dffffffffffffffffffffffffffff16612bd79190613f57565b9050919050565b6000816dffffffffffffffffffffffffffff1683612bfc9190613fad565b905092915050565b6000828284612c139190613e6e565b9150811015612c57576040517f08c379a0000000000000000000000000000000000000000000000000000000008152600401612c4e9061402a565b60405180910390fd5b92915050565b600080fd5b600080fd5b6000819050919050565b612c7a81612c67565b8114612c8557600080fd5b50565b600081359050612c9781612c71565b92915050565b600073ffffffffffffffffffffffffffffffffffffffff82169050919050565b6000612cc882612c9d565b9050919050565b612cd881612cbd565b8114612ce357600080fd5b50565b600081359050612cf581612ccf565b92915050565b600080fd5b600080fd5b600080fd5b60008083601f840112612d2057612d1f612cfb565b5b8235905067ffffffffffffffff811115612d3d57612d3c612d00565b5b602083019150836001820283011115612d5957612d58612d05565b5b9250929050565b600080600080600060808688031215612d7c57612d7b612c5d565b5b6000612d8a88828901612c88565b9550506020612d9b88828901612c88565b9450506040612dac88828901612ce6565b935050606086013567ffffffffffffffff811115612dcd57612dcc612c62565b5b612dd988828901612d0a565b92509250509295509295909350565b600081519050919050565b600082825260208201905092915050565b60005b83811015612e22578082015181840152602081019050612e07565b83811115612e31576000848401525b50505050565b6000601f19601f8301169050919050565b6000612e5382612de8565b612e5d8185612df3565b9350612e6d818560208601612e04565b612e7681612e37565b840191505092915050565b60006020820190508181036000830152612e9b8184612e48565b905092915050565b60006dffffffffffffffffffffffffffff82169050919050565b612ec681612ea3565b82525050565b600063ffffffff82169050919050565b612ee581612ecc565b82525050565b6000606082019050612f006000830186612ebd565b612f0d6020830185612ebd565b612f1a6040830184612edc565b949350505050565b60008060408385031215612f3957612f38612c5d565b5b6000612f4785828601612ce6565b9250506020612f5885828601612c88565b9150509250929050565b60008115159050919050565b612f7781612f62565b82525050565b6000602082019050612f926000830184612f6e565b92915050565b612fa181612cbd565b82525050565b6000602082019050612fbc6000830184612f98565b92915050565b612fcb81612c67565b82525050565b6000602082019050612fe66000830184612fc2565b92915050565b60008060006060848603121561300557613004612c5d565b5b600061301386828701612ce6565b935050602061302486828701612ce6565b925050604061303586828701612c88565b9150509250925092565b6000819050919050565b6130528161303f565b82525050565b600060208201905061306d6000830184613049565b92915050565b600060ff82169050919050565b61308981613073565b82525050565b60006020820190506130a46000830184613080565b92915050565b600080604083850312156130c1576130c0612c5d565b5b60006130cf85828601612ce6565b92505060206130e085828601612ce6565b9150509250929050565b600060208284031215613100576130ff612c5d565b5b600061310e84828501612ce6565b91505092915050565b600060408201905061312c6000830185612fc2565b6131396020830184612fc2565b9392505050565b61314981613073565b811461315457600080fd5b50565b60008135905061316681613140565b92915050565b6131758161303f565b811461318057600080fd5b50565b6000813590506131928161316c565b92915050565b600080600080600080600060e0888a0312156131b7576131b6612c5d565b5b60006131c58a828b01612ce6565b97505060206131d68a828b01612ce6565b96505060406131e78a828b01612c88565b95505060606131f88a828b01612c88565b94505060806132098a828b01613157565b93505060a061321a8a828b01613183565b92505060c061322b8a828b01613183565b91505092959891949750929550565b7f556e697377617056323a204c4f434b4544000000000000000000000000000000600082015250565b6000613270601183612df3565b915061327b8261323a565b602082019050919050565b6000602082019050818103600083015261329f81613263565b9050919050565b7f556e697377617056323a20494e53554646494349454e545f4f55545055545f4160008201527f4d4f554e54000000000000000000000000000000000000000000000000000000602082015250565b6000613302602583612df3565b915061330d826132a6565b604082019050919050565b60006020820190508181036000830152613331816132f5565b9050919050565b7f556e697377617056323a20494e53554646494349454e545f4c4951554944495460008201527f5900000000000000000000000000000000000000000000000000000000000000602082015250565b6000613394602183612df3565b915061339f82613338565b604082019050919050565b600060208201905081810360008301526133c381613387565b9050919050565b7f556e697377617056323a20494e56414c49445f544f0000000000000000000000600082015250565b6000613400601583612df3565b915061340b826133ca565b602082019050919050565b6000602082019050818103600083015261342f816133f3565b9050919050565b600082825260208201905092915050565b82818337600083830152505050565b60006134628385613436565b935061346f838584613447565b61347883612e37565b840190509392505050565b60006080820190506134986000830188612f98565b6134a56020830187612fc2565b6134b26040830186612fc2565b81810360608301526134c5818486613456565b90509695505050505050565b6000815190506134e081612c71565b92915050565b6000602082840312156134fc576134fb612c5d565b5b600061350a848285016134d1565b91505092915050565b7f4e487b7100000000000000000000000000000000000000000000000000000000600052601160045260246000fd5b600061354d82612c67565b915061355883612c67565b92508282101561356b5761356a613513565b5b828203905092915050565b7f556e697377617056323a20494e53554646494349454e545f494e5055545f414d60008201527f4f554e5400000000000000000000000000000000000000000000000000000000602082015250565b60006135d2602483612df3565b91506135dd82613576565b604082019050919050565b60006020820190508181036000830152613601816135c5565b9050919050565b7f556e697377617056323a204b0000000000000000000000000000000000000000600082015250565b600061363e600c83612df3565b915061364982613608565b602082019050919050565b6000602082019050818103600083015261366d81613631565b9050919050565b60006080820190506136896000830187612fc2565b6136966020830186612fc2565b6136a36040830185612fc2565b6136b06060830184612fc2565b95945050505050565b7f556e697377617056323a20464f5242494444454e000000000000000000000000600082015250565b60006136ef601483612df3565b91506136fa826136b9565b602082019050919050565b6000602082019050818103600083015261371e816136e2565b9050919050565b7f4e487b7100000000000000000000000000000000000000000000000000000000600052601260045260246000fd5b600061375f82612c67565b915061376a83612c67565b92508261377a57613779613725565b5b828204905092915050565b7f556e697377617056323a20494e53554646494349454e545f4c4951554944495460008201527f595f4d494e544544000000000000000000000000000000000000000000000000602082015250565b60006137e1602883612df3565b91506137ec82613785565b604082019050919050565b60006020820190508181036000830152613810816137d4565b9050919050565b7f556e697377617056323a20494e53554646494349454e545f4c4951554944495460008201527f595f4255524e4544000000000000000000000000000000000000000000000000602082015250565b6000613873602883612df3565b915061387e82613817565b604082019050919050565b600060208201905081810360008301526138a281613866565b9050919050565b7f556e697377617056323a20455850495245440000000000000000000000000000600082015250565b60006138df601283612df3565b91506138ea826138a9565b602082019050919050565b6000602082019050818103600083015261390e816138d2565b9050919050565b600061392082612c67565b91507fffffffffffffffffffffffffffffffffffffffffffffffffffffffffffffffff82141561395357613952613513565b5b600182019050919050565b600060c0820190506139736000830189613049565b6139806020830188612f98565b61398d6040830187612f98565b61399a6060830186612fc2565b6139a76080830185612fc2565b6139b460a0830184612fc2565b979650505050505050565b600081905092915050565b7f1901000000000000000000000000000000000000000000000000000000000000600082015250565b6000613a006002836139bf565b9150613a0b826139ca565b600282019050919050565b6000819050919050565b613a31613a2c8261303f565b613a16565b82525050565b6000613a42826139f3565b9150613a4e8285613a20565b602082019150613a5e8284613a20565b6020820191508190509392505050565b6000608082019050613a836000830187613049565b613a906020830186613080565b613a9d6040830185613049565b613aaa6060830184613049565b95945050505050565b7f556e697377617056323a20494e56414c49445f5349474e415455524500000000600082015250565b6000613ae9601c83612df3565b9150613af482613ab3565b602082019050919050565b60006020820190508181036000830152613b1881613adc565b9050919050565b6000604082019050613b346000830185612f98565b613b416020830184612fc2565b9392505050565b600081519050919050565b600081905092915050565b6000613b6982613b48565b613b738185613b53565b9350613b83818560208601612e04565b80840191505092915050565b6000613b9b8284613b5e565b915081905092915050565b613baf81612f62565b8114613bba57600080fd5b50565b600081519050613bcc81613ba6565b92915050565b600060208284031215613be857613be7612c5d565b5b6000613bf684828501613bbd565b91505092915050565b7f556e697377617056323a205452414e534645525f4641494c4544000000000000600082015250565b6000613c35601a83612df3565b9150613c4082613bff565b602082019050919050565b60006020820190508181036000830152613c6481613c28565b9050919050565b6000613c7682612c67565b9150613c8183612c67565b9250817fffffffffffffffffffffffffffffffffffffffffffffffffffffffffffffffff0483118215151615613cba57613cb9613513565b5b828202905092915050565b7f64732d6d6174682d6d756c2d6f766572666c6f77000000000000000000000000600082015250565b6000613cfb601483612df3565b9150613d0682613cc5565b602082019050919050565b60006020820190508181036000830152613d2a81613cee565b9050919050565b7f64732d6d6174682d7375622d756e646572666c6f770000000000000000000000600082015250565b6000613d67601583612df3565b9150613d7282613d31565b602082019050919050565b60006020820190508181036000830152613d9681613d5a565b9050919050565b7f556e697377617056323a204f564552464c4f5700000000000000000000000000600082015250565b6000613dd3601383612df3565b9150613dde82613d9d565b602082019050919050565b60006020820190508181036000830152613e0281613dc6565b9050919050565b6000613e1482612c67565b9150613e1f83612c67565b925082613e2f57613e2e613725565b5b828206905092915050565b6000613e4582612ecc565b9150613e5083612ecc565b925082821015613e6357613e62613513565b5b828203905092915050565b6000613e7982612c67565b9150613e8483612c67565b9250827fffffffffffffffffffffffffffffffffffffffffffffffffffffffffffffffff03821115613eb957613eb8613513565b5b828201905092915050565b6000604082019050613ed96000830185612ebd565b613ee66020830184612ebd565b9392505050565b600081519050613efc81612ccf565b92915050565b600060208284031215613f1857613f17612c5d565b5b6000613f2684828501613eed565b91505092915050565b60007bffffffffffffffffffffffffffffffffffffffffffffffffffffffff82169050919050565b6000613f6282613f2f565b9150613f6d83613f2f565b9250817bffffffffffffffffffffffffffffffffffffffffffffffffffffffff0483118215151615613fa257613fa1613513565b5b828202905092915050565b6000613fb882613f2f565b9150613fc383613f2f565b925082613fd357613fd2613725565b5b828204905092915050565b7f64732d6d6174682d6164642d6f766572666c6f77000000000000000000000000600082015250565b6000614014601483612df3565b915061401f82613fde565b602082019050919050565b6000602082019050818103600083015261404381614007565b905091905056fea2646970667358221220cf22b6e331cf275930249e647b0635640060fef94b710673de038d3e4ae7279e64736f6c634300080a0033a26469706673582212205511a7e07c5613a368cd83c49aba6acecef3d0fcc9b013c41108380d748e9cd464736f6c634300080a0033",
    "linkReferences": {},
    "deployedLinkReferences": {}
}