{
    "_format": "hh-sol-artifact-1",
    "contractName": "LiteSwapRouter",
    "sourceName": "contracts/LiteSwap/periphery/LiteSwapRouter.sol",
    "abi": [
        {
            "inputs": [
                {
                    "internalType": "address",
                    "name": "_factory",
                    "type": "address"
                },
                {
                    "internalType": "address",
                    "name": "_WETH",
                    "type": "address"
                }
            ],
            "stateMutability": "nonpayable",
            "type": "constructor"
        },
        {
            "inputs": [],
            "name": "WETH",
            "outputs": [
                {
                    "internalType": "address",
                    "name": "",
                    "type": "address"
                }
            ],
            "stateMutability": "view",
            "type": "function"
        },
        {
            "inputs": [
                {
                    "internalType": "address",
                    "name": "tokenA",
                    "type": "address"
                },
                {
                    "internalType": "address",
                    "name": "tokenB",
                    "type": "address"
                },
                {
                    "internalType": "uint256",
                    "name": "amountADesired",
                    "type": "uint256"
                },
                {
                    "internalType": "uint256",
                    "name": "amountBDesired",
                    "type": "uint256"
                },
                {
                    "internalType": "uint256",
                    "name": "amountAMin",
                    "type": "uint256"
                },
                {
                    "internalType": "uint256",
                    "name": "amountBMin",
                    "type": "uint256"
                },
                {
                    "internalType": "address",
                    "name": "to",
                    "type": "address"
                },
                {
                    "internalType": "uint256",
                    "name": "deadline",
                    "type": "uint256"
                }
            ],
            "name": "addLiquidity",
            "outputs": [
                {
                    "internalType": "uint256",
                    "name": "amountA",
                    "type": "uint256"
                },
                {
                    "internalType": "uint256",
                    "name": "amountB",
                    "type": "uint256"
                },
                {
                    "internalType": "uint256",
                    "name": "liquidity",
                    "type": "uint256"
                }
            ],
            "stateMutability": "nonpayable",
            "type": "function"
        },
        {
            "inputs": [
                {
                    "internalType": "address",
                    "name": "token",
                    "type": "address"
                },
                {
                    "internalType": "uint256",
                    "name": "amountTokenDesired",
                    "type": "uint256"
                },
                {
                    "internalType": "uint256",
                    "name": "amountTokenMin",
                    "type": "uint256"
                },
                {
                    "internalType": "uint256",
                    "name": "amountETHMin",
                    "type": "uint256"
                },
                {
                    "internalType": "address",
                    "name": "to",
                    "type": "address"
                },
                {
                    "internalType": "uint256",
                    "name": "deadline",
                    "type": "uint256"
                }
            ],
            "name": "addLiquidityETH",
            "outputs": [
                {
                    "internalType": "uint256",
                    "name": "amountToken",
                    "type": "uint256"
                },
                {
                    "internalType": "uint256",
                    "name": "amountETH",
                    "type": "uint256"
                },
                {
                    "internalType": "uint256",
                    "name": "liquidity",
                    "type": "uint256"
                }
            ],
            "stateMutability": "payable",
            "type": "function"
        },
        {
            "inputs": [],
            "name": "factory",
            "outputs": [
                {
                    "internalType": "address",
                    "name": "",
                    "type": "address"
                }
            ],
            "stateMutability": "view",
            "type": "function"
        },
        {
            "inputs": [
                {
                    "internalType": "uint256",
                    "name": "amountOut",
                    "type": "uint256"
                },
                {
                    "internalType": "uint256",
                    "name": "reserveIn",
                    "type": "uint256"
                },
                {
                    "internalType": "uint256",
                    "name": "reserveOut",
                    "type": "uint256"
                }
            ],
            "name": "getAmountIn",
            "outputs": [
                {
                    "internalType": "uint256",
                    "name": "amountIn",
                    "type": "uint256"
                }
            ],
            "stateMutability": "pure",
            "type": "function"
        },
        {
            "inputs": [
                {
                    "internalType": "uint256",
                    "name": "amountIn",
                    "type": "uint256"
                },
                {
                    "internalType": "uint256",
                    "name": "reserveIn",
                    "type": "uint256"
                },
                {
                    "internalType": "uint256",
                    "name": "reserveOut",
                    "type": "uint256"
                }
            ],
            "name": "getAmountOut",
            "outputs": [
                {
                    "internalType": "uint256",
                    "name": "amountOut",
                    "type": "uint256"
                }
            ],
            "stateMutability": "pure",
            "type": "function"
        },
        {
            "inputs": [
                {
                    "internalType": "uint256",
                    "name": "amountOut",
                    "type": "uint256"
                },
                {
                    "internalType": "address[]",
                    "name": "path",
                    "type": "address[]"
                }
            ],
            "name": "getAmountsIn",
            "outputs": [
                {
                    "internalType": "uint256[]",
                    "name": "amounts",
                    "type": "uint256[]"
                }
            ],
            "stateMutability": "view",
            "type": "function"
        },
        {
            "inputs": [
                {
                    "internalType": "uint256",
                    "name": "amountIn",
                    "type": "uint256"
                },
                {
                    "internalType": "address[]",
                    "name": "path",
                    "type": "address[]"
                }
            ],
            "name": "getAmountsOut",
            "outputs": [
                {
                    "internalType": "uint256[]",
                    "name": "amounts",
                    "type": "uint256[]"
                }
            ],
            "stateMutability": "view",
            "type": "function"
        },
        {
            "inputs": [
                {
                    "internalType": "uint256",
                    "name": "amountA",
                    "type": "uint256"
                },
                {
                    "internalType": "uint256",
                    "name": "reserveA",
                    "type": "uint256"
                },
                {
                    "internalType": "uint256",
                    "name": "reserveB",
                    "type": "uint256"
                }
            ],
            "name": "quote",
            "outputs": [
                {
                    "internalType": "uint256",
                    "name": "amountB",
                    "type": "uint256"
                }
            ],
            "stateMutability": "pure",
            "type": "function"
        },
        {
            "inputs": [
                {
                    "internalType": "address",
                    "name": "tokenA",
                    "type": "address"
                },
                {
                    "internalType": "address",
                    "name": "tokenB",
                    "type": "address"
                },
                {
                    "internalType": "uint256",
                    "name": "liquidity",
                    "type": "uint256"
                },
                {
                    "internalType": "uint256",
                    "name": "amountAMin",
                    "type": "uint256"
                },
                {
                    "internalType": "uint256",
                    "name": "amountBMin",
                    "type": "uint256"
                },
                {
                    "internalType": "address",
                    "name": "to",
                    "type": "address"
                },
                {
                    "internalType": "uint256",
                    "name": "deadline",
                    "type": "uint256"
                }
            ],
            "name": "removeLiquidity",
            "outputs": [
                {
                    "internalType": "uint256",
                    "name": "amountA",
                    "type": "uint256"
                },
                {
                    "internalType": "uint256",
                    "name": "amountB",
                    "type": "uint256"
                }
            ],
            "stateMutability": "nonpayable",
            "type": "function"
        },
        {
            "inputs": [
                {
                    "internalType": "address",
                    "name": "token",
                    "type": "address"
                },
                {
                    "internalType": "uint256",
                    "name": "liquidity",
                    "type": "uint256"
                },
                {
                    "internalType": "uint256",
                    "name": "amountTokenMin",
                    "type": "uint256"
                },
                {
                    "internalType": "uint256",
                    "name": "amountETHMin",
                    "type": "uint256"
                },
                {
                    "internalType": "address",
                    "name": "to",
                    "type": "address"
                },
                {
                    "internalType": "uint256",
                    "name": "deadline",
                    "type": "uint256"
                }
            ],
            "name": "removeLiquidityETH",
            "outputs": [
                {
                    "internalType": "uint256",
                    "name": "amountToken",
                    "type": "uint256"
                },
                {
                    "internalType": "uint256",
                    "name": "amountETH",
                    "type": "uint256"
                }
            ],
            "stateMutability": "nonpayable",
            "type": "function"
        },
        {
            "inputs": [
                {
                    "internalType": "address",
                    "name": "token",
                    "type": "address"
                },
                {
                    "internalType": "uint256",
                    "name": "liquidity",
                    "type": "uint256"
                },
                {
                    "internalType": "uint256",
                    "name": "amountTokenMin",
                    "type": "uint256"
                },
                {
                    "internalType": "uint256",
                    "name": "amountETHMin",
                    "type": "uint256"
                },
                {
                    "internalType": "address",
                    "name": "to",
                    "type": "address"
                },
                {
                    "internalType": "uint256",
                    "name": "deadline",
                    "type": "uint256"
                }
            ],
            "name": "removeLiquidityETHSupportingFeeOnTransferTokens",
            "outputs": [
                {
                    "internalType": "uint256",
                    "name": "amountETH",
                    "type": "uint256"
                }
            ],
            "stateMutability": "nonpayable",
            "type": "function"
        },
        {
            "inputs": [
                {
                    "internalType": "address",
                    "name": "token",
                    "type": "address"
                },
                {
                    "internalType": "uint256",
                    "name": "liquidity",
                    "type": "uint256"
                },
                {
                    "internalType": "uint256",
                    "name": "amountTokenMin",
                    "type": "uint256"
                },
                {
                    "internalType": "uint256",
                    "name": "amountETHMin",
                    "type": "uint256"
                },
                {
                    "internalType": "address",
                    "name": "to",
                    "type": "address"
                },
                {
                    "internalType": "uint256",
                    "name": "deadline",
                    "type": "uint256"
                },
                {
                    "internalType": "bool",
                    "name": "approveMax",
                    "type": "bool"
                },
                {
                    "internalType": "uint8",
                    "name": "v",
                    "type": "uint8"
                },
                {
                    "internalType": "bytes32",
                    "name": "r",
                    "type": "bytes32"
                },
                {
                    "internalType": "bytes32",
                    "name": "s",
                    "type": "bytes32"
                }
            ],
            "name": "removeLiquidityETHWithPermit",
            "outputs": [
                {
                    "internalType": "uint256",
                    "name": "amountToken",
                    "type": "uint256"
                },
                {
                    "internalType": "uint256",
                    "name": "amountETH",
                    "type": "uint256"
                }
            ],
            "stateMutability": "nonpayable",
            "type": "function"
        },
        {
            "inputs": [
                {
                    "internalType": "address",
                    "name": "token",
                    "type": "address"
                },
                {
                    "internalType": "uint256",
                    "name": "liquidity",
                    "type": "uint256"
                },
                {
                    "internalType": "uint256",
                    "name": "amountTokenMin",
                    "type": "uint256"
                },
                {
                    "internalType": "uint256",
                    "name": "amountETHMin",
                    "type": "uint256"
                },
                {
                    "internalType": "address",
                    "name": "to",
                    "type": "address"
                },
                {
                    "internalType": "uint256",
                    "name": "deadline",
                    "type": "uint256"
                },
                {
                    "internalType": "bool",
                    "name": "approveMax",
                    "type": "bool"
                },
                {
                    "internalType": "uint8",
                    "name": "v",
                    "type": "uint8"
                },
                {
                    "internalType": "bytes32",
                    "name": "r",
                    "type": "bytes32"
                },
                {
                    "internalType": "bytes32",
                    "name": "s",
                    "type": "bytes32"
                }
            ],
            "name": "removeLiquidityETHWithPermitSupportingFeeOnTransferTokens",
            "outputs": [
                {
                    "internalType": "uint256",
                    "name": "amountETH",
                    "type": "uint256"
                }
            ],
            "stateMutability": "nonpayable",
            "type": "function"
        },
        {
            "inputs": [
                {
                    "internalType": "address",
                    "name": "tokenA",
                    "type": "address"
                },
                {
                    "internalType": "address",
                    "name": "tokenB",
                    "type": "address"
                },
                {
                    "internalType": "uint256",
                    "name": "liquidity",
                    "type": "uint256"
                },
                {
                    "internalType": "uint256",
                    "name": "amountAMin",
                    "type": "uint256"
                },
                {
                    "internalType": "uint256",
                    "name": "amountBMin",
                    "type": "uint256"
                },
                {
                    "internalType": "address",
                    "name": "to",
                    "type": "address"
                },
                {
                    "internalType": "uint256",
                    "name": "deadline",
                    "type": "uint256"
                },
                {
                    "internalType": "bool",
                    "name": "approveMax",
                    "type": "bool"
                },
                {
                    "internalType": "uint8",
                    "name": "v",
                    "type": "uint8"
                },
                {
                    "internalType": "bytes32",
                    "name": "r",
                    "type": "bytes32"
                },
                {
                    "internalType": "bytes32",
                    "name": "s",
                    "type": "bytes32"
                }
            ],
            "name": "removeLiquidityWithPermit",
            "outputs": [
                {
                    "internalType": "uint256",
                    "name": "amountA",
                    "type": "uint256"
                },
                {
                    "internalType": "uint256",
                    "name": "amountB",
                    "type": "uint256"
                }
            ],
            "stateMutability": "nonpayable",
            "type": "function"
        },
        {
            "inputs": [
                {
                    "internalType": "uint256",
                    "name": "amountOut",
                    "type": "uint256"
                },
                {
                    "internalType": "address[]",
                    "name": "path",
                    "type": "address[]"
                },
                {
                    "internalType": "address",
                    "name": "to",
                    "type": "address"
                },
                {
                    "internalType": "uint256",
                    "name": "deadline",
                    "type": "uint256"
                }
            ],
            "name": "swapETHForExactTokens",
            "outputs": [
                {
                    "internalType": "uint256[]",
                    "name": "amounts",
                    "type": "uint256[]"
                }
            ],
            "stateMutability": "payable",
            "type": "function"
        },
        {
            "inputs": [
                {
                    "internalType": "uint256",
                    "name": "amountOutMin",
                    "type": "uint256"
                },
                {
                    "internalType": "address[]",
                    "name": "path",
                    "type": "address[]"
                },
                {
                    "internalType": "address",
                    "name": "to",
                    "type": "address"
                },
                {
                    "internalType": "uint256",
                    "name": "deadline",
                    "type": "uint256"
                }
            ],
            "name": "swapExactETHForTokens",
            "outputs": [
                {
                    "internalType": "uint256[]",
                    "name": "amounts",
                    "type": "uint256[]"
                }
            ],
            "stateMutability": "payable",
            "type": "function"
        },
        {
            "inputs": [
                {
                    "internalType": "uint256",
                    "name": "amountOutMin",
                    "type": "uint256"
                },
                {
                    "internalType": "address[]",
                    "name": "path",
                    "type": "address[]"
                },
                {
                    "internalType": "address",
                    "name": "to",
                    "type": "address"
                },
                {
                    "internalType": "uint256",
                    "name": "deadline",
                    "type": "uint256"
                }
            ],
            "name": "swapExactETHForTokensSupportingFeeOnTransferTokens",
            "outputs": [],
            "stateMutability": "payable",
            "type": "function"
        },
        {
            "inputs": [
                {
                    "internalType": "uint256",
                    "name": "amountIn",
                    "type": "uint256"
                },
                {
                    "internalType": "uint256",
                    "name": "amountOutMin",
                    "type": "uint256"
                },
                {
                    "internalType": "address[]",
                    "name": "path",
                    "type": "address[]"
                },
                {
                    "internalType": "address",
                    "name": "to",
                    "type": "address"
                },
                {
                    "internalType": "uint256",
                    "name": "deadline",
                    "type": "uint256"
                }
            ],
            "name": "swapExactTokensForETH",
            "outputs": [
                {
                    "internalType": "uint256[]",
                    "name": "amounts",
                    "type": "uint256[]"
                }
            ],
            "stateMutability": "nonpayable",
            "type": "function"
        },
        {
            "inputs": [
                {
                    "internalType": "uint256",
                    "name": "amountIn",
                    "type": "uint256"
                },
                {
                    "internalType": "uint256",
                    "name": "amountOutMin",
                    "type": "uint256"
                },
                {
                    "internalType": "address[]",
                    "name": "path",
                    "type": "address[]"
                },
                {
                    "internalType": "address",
                    "name": "to",
                    "type": "address"
                },
                {
                    "internalType": "uint256",
                    "name": "deadline",
                    "type": "uint256"
                }
            ],
            "name": "swapExactTokensForETHSupportingFeeOnTransferTokens",
            "outputs": [],
            "stateMutability": "nonpayable",
            "type": "function"
        },
        {
            "inputs": [
                {
                    "internalType": "uint256",
                    "name": "amountIn",
                    "type": "uint256"
                },
                {
                    "internalType": "uint256",
                    "name": "amountOutMin",
                    "type": "uint256"
                },
                {
                    "internalType": "address[]",
                    "name": "path",
                    "type": "address[]"
                },
                {
                    "internalType": "address",
                    "name": "to",
                    "type": "address"
                },
                {
                    "internalType": "uint256",
                    "name": "deadline",
                    "type": "uint256"
                }
            ],
            "name": "swapExactTokensForTokens",
            "outputs": [
                {
                    "internalType": "uint256[]",
                    "name": "amounts",
                    "type": "uint256[]"
                }
            ],
            "stateMutability": "nonpayable",
            "type": "function"
        },
        {
            "inputs": [
                {
                    "internalType": "uint256",
                    "name": "amountIn",
                    "type": "uint256"
                },
                {
                    "internalType": "uint256",
                    "name": "amountOutMin",
                    "type": "uint256"
                },
                {
                    "internalType": "address[]",
                    "name": "path",
                    "type": "address[]"
                },
                {
                    "internalType": "address",
                    "name": "to",
                    "type": "address"
                },
                {
                    "internalType": "uint256",
                    "name": "deadline",
                    "type": "uint256"
                }
            ],
            "name": "swapExactTokensForTokensSupportingFeeOnTransferTokens",
            "outputs": [],
            "stateMutability": "nonpayable",
            "type": "function"
        },
        {
            "inputs": [
                {
                    "internalType": "uint256",
                    "name": "amountOut",
                    "type": "uint256"
                },
                {
                    "internalType": "uint256",
                    "name": "amountInMax",
                    "type": "uint256"
                },
                {
                    "internalType": "address[]",
                    "name": "path",
                    "type": "address[]"
                },
                {
                    "internalType": "address",
                    "name": "to",
                    "type": "address"
                },
                {
                    "internalType": "uint256",
                    "name": "deadline",
                    "type": "uint256"
                }
            ],
            "name": "swapTokensForExactETH",
            "outputs": [
                {
                    "internalType": "uint256[]",
                    "name": "amounts",
                    "type": "uint256[]"
                }
            ],
            "stateMutability": "nonpayable",
            "type": "function"
        },
        {
            "inputs": [
                {
                    "internalType": "uint256",
                    "name": "amountOut",
                    "type": "uint256"
                },
                {
                    "internalType": "uint256",
                    "name": "amountInMax",
                    "type": "uint256"
                },
                {
                    "internalType": "address[]",
                    "name": "path",
                    "type": "address[]"
                },
                {
                    "internalType": "address",
                    "name": "to",
                    "type": "address"
                },
                {
                    "internalType": "uint256",
                    "name": "deadline",
                    "type": "uint256"
                }
            ],
            "name": "swapTokensForExactTokens",
            "outputs": [
                {
                    "internalType": "uint256[]",
                    "name": "amounts",
                    "type": "uint256[]"
                }
            ],
            "stateMutability": "nonpayable",
            "type": "function"
        },
        {
            "stateMutability": "payable",
            "type": "receive"
        }
    ],
    "bytecode": "0x60c06040523480156200001157600080fd5b50604051620068fe380380620068fe833981810160405281019062000037919062000111565b8173ffffffffffffffffffffffffffffffffffffffff1660808173ffffffffffffffffffffffffffffffffffffffff16815250508073ffffffffffffffffffffffffffffffffffffffff1660a08173ffffffffffffffffffffffffffffffffffffffff1681525050505062000158565b600080fd5b600073ffffffffffffffffffffffffffffffffffffffff82169050919050565b6000620000d982620000ac565b9050919050565b620000eb81620000cc565b8114620000f757600080fd5b50565b6000815190506200010b81620000e0565b92915050565b600080604083850312156200012b576200012a620000a7565b5b60006200013b85828601620000fa565b92505060206200014e85828601620000fa565b9150509250929050565b60805160a0516165f16200030d60003960008181610156015281816107300152818161076e0152818161086b01528181610b1c01528181610fc60152818161126b01528181611381015281816117b40152818161197301528181611a5201528181611b3701528181611cc501528181611d610152818161213f015281816121c3015281816122780152818161235c015281816124170152818161249801528181612ab101528181612d2901528181612d8201528181612db601528181612e3701528181612fd20152818161315401526131f001526000818161093201528181610a3701528181610c0f01528181610c4701528181610d8b01528181610e900152818161108d015281816111860152818161135f015281816114e5015281816118a801528181611bf001528181611da001528181611f560152818161204f015281816124d70152818161281601528181612a2e01528181612a5701528181612a8f01528181612c0c01528181612d600152818161308b0152818161322f01528181613b4c01528181613ba001528181613eb5015281816140c1015281816145600152818161461801526146be01526165f16000f3fe60806040526004361061014f5760003560e01c80638803dbee116100b6578063c45a01551161006f578063c45a01551461059c578063d06ca61f146105c7578063ded9382a14610604578063e8e3370014610642578063f305d71914610681578063fb3bdb41146106b3576101b2565b80638803dbee14610460578063ad5c46481461049d578063ad615dec146104c8578063af2979eb14610505578063b6f9de9514610542578063baa2abde1461055e576101b2565b80634a25d94a116101085780634a25d94a146103275780635b0d5984146103645780635c11d795146103a1578063791ac947146103ca5780637ff36ab5146103f357806385f8c25914610423576101b2565b806302751cec146101b7578063054d50d4146101f557806318cbafe5146102325780631f00ca741461026f5780632195995c146102ac57806338ed1739146102ea576101b2565b366101b2577f000000000000000000000000000000000000000000000000000000000000000073ffffffffffffffffffffffffffffffffffffffff163373ffffffffffffffffffffffffffffffffffffffff16146101b0576101af6149bb565b5b005b600080fd5b3480156101c357600080fd5b506101de60048036038101906101d99190614a92565b6106e3565b6040516101ec929190614b2e565b60405180910390f35b34801561020157600080fd5b5061021c60048036038101906102179190614b57565b61080d565b6040516102299190614baa565b60405180910390f35b34801561023e57600080fd5b5061025960048036038101906102549190614c2a565b610823565b6040516102669190614d82565b60405180910390f35b34801561027b57600080fd5b5061029660048036038101906102919190614ef3565b610c08565b6040516102a39190614d82565b60405180910390f35b3480156102b857600080fd5b506102d360048036038101906102ce9190614ff6565b610c3d565b6040516102e1929190614b2e565b60405180910390f35b3480156102f657600080fd5b50610311600480360381019061030c9190614c2a565b610d40565b60405161031e9190614d82565b60405180910390f35b34801561033357600080fd5b5061034e60048036038101906103499190614c2a565b610f7e565b60405161035b9190614d82565b60405180910390f35b34801561037057600080fd5b5061038b600480360381019061038691906150ea565b611357565b6040516103989190614baa565b60405180910390f35b3480156103ad57600080fd5b506103c860048036038101906103c39190614c2a565b61146f565b005b3480156103d657600080fd5b506103f160048036038101906103ec9190614c2a565b61176e565b005b61040d600480360381019061040891906151c9565b611aef565b60405161041a9190614d82565b60405180910390f35b34801561042f57600080fd5b5061044a60048036038101906104459190614b57565b611ef5565b6040516104579190614baa565b60405180910390f35b34801561046c57600080fd5b5061048760048036038101906104829190614c2a565b611f0b565b6040516104949190614d82565b60405180910390f35b3480156104a957600080fd5b506104b261213d565b6040516104bf9190615260565b60405180910390f35b3480156104d457600080fd5b506104ef60048036038101906104ea9190614b57565b612161565b6040516104fc9190614baa565b60405180910390f35b34801561051157600080fd5b5061052c60048036038101906105279190614a92565b612177565b6040516105399190614baa565b60405180910390f35b61055c600480360381019061055791906151c9565b612316565b005b34801561056a57600080fd5b506105856004803603810190610580919061527b565b6127c8565b604051610593929190614b2e565b60405180910390f35b3480156105a857600080fd5b506105b1612a2c565b6040516105be9190615260565b60405180910390f35b3480156105d357600080fd5b506105ee60048036038101906105e99190614ef3565b612a50565b6040516105fb9190614d82565b60405180910390f35b34801561061057600080fd5b5061062b600480360381019061062691906150ea565b612a85565b604051610639929190614b2e565b60405180910390f35b34801561064e57600080fd5b506106696004803603810190610664919061531d565b612ba6565b604051610678939291906153d3565b60405180910390f35b61069b60048036038101906106969190614a92565b612cda565b6040516106aa939291906153d3565b60405180910390f35b6106cd60048036038101906106c891906151c9565b612f8a565b6040516106da9190614d82565b60405180910390f35b600080824281101561072a576040517f08c379a000000000000000000000000000000000000000000000000000000000815260040161072190615467565b60405180910390fd5b610759897f00000000000000000000000000000000000000000000000000000000000000008a8a8a308a6127c8565b809350819450505061076c8986856133d8565b7f000000000000000000000000000000000000000000000000000000000000000073ffffffffffffffffffffffffffffffffffffffff16632e1a7d4d836040518263ffffffff1660e01b81526004016107c59190614baa565b600060405180830381600087803b1580156107df57600080fd5b505af11580156107f3573d6000803e3d6000fd5b50505050610801858361350e565b50965096945050505050565b600061081a84848461360e565b90509392505050565b60608142811015610869576040517f08c379a000000000000000000000000000000000000000000000000000000000815260040161086090615467565b60405180910390fd5b7f000000000000000000000000000000000000000000000000000000000000000073ffffffffffffffffffffffffffffffffffffffff1686866001898990506108b291906154b6565b8181106108c2576108c16154ea565b5b90506020020160208101906108d79190615519565b73ffffffffffffffffffffffffffffffffffffffff161461092d576040517f08c379a000000000000000000000000000000000000000000000000000000000815260040161092490615592565b60405180910390fd5b6109997f000000000000000000000000000000000000000000000000000000000000000089888880806020026020016040519081016040528093929190818152602001838360200280828437600081840152601f19601f82011690508083019250505050505050613714565b91508682600184516109ab91906154b6565b815181106109bc576109bb6154ea565b5b60200260200101511015610a05576040517f08c379a00000000000000000000000000000000000000000000000000000000081526004016109fc90615624565b60405180910390fd5b610ace86866000818110610a1c57610a1b6154ea565b5b9050602002016020810190610a319190615519565b33610aad7f00000000000000000000000000000000000000000000000000000000000000008a8a6000818110610a6a57610a696154ea565b5b9050602002016020810190610a7f9190615519565b8b8b6001818110610a9357610a926154ea565b5b9050602002016020810190610aa89190615519565b61389f565b85600081518110610ac157610ac06154ea565b5b6020026020010151613911565b610b1a82878780806020026020016040519081016040528093929190818152602001838360200280828437600081840152601f19601f8201169050808301925050505050505030613a4a565b7f000000000000000000000000000000000000000000000000000000000000000073ffffffffffffffffffffffffffffffffffffffff16632e1a7d4d8360018551610b6591906154b6565b81518110610b7657610b756154ea565b5b60200260200101516040518263ffffffff1660e01b8152600401610b9a9190614baa565b600060405180830381600087803b158015610bb457600080fd5b505af1158015610bc8573d6000803e3d6000fd5b50505050610bfd848360018551610bdf91906154b6565b81518110610bf057610bef6154ea565b5b602002602001015161350e565b509695505050505050565b6060610c357f00000000000000000000000000000000000000000000000000000000000000008484613ca3565b905092915050565b6000806000610c6d7f00000000000000000000000000000000000000000000000000000000000000008f8f61389f565b9050600087610c7c578c610c9e565b7fffffffffffffffffffffffffffffffffffffffffffffffffffffffffffffffff5b90508173ffffffffffffffffffffffffffffffffffffffff1663d505accf3330848d8c8c8c6040518863ffffffff1660e01b8152600401610ce59796959493929190615662565b600060405180830381600087803b158015610cff57600080fd5b505af1158015610d13573d6000803e3d6000fd5b50505050610d268f8f8f8f8f8f8f6127c8565b809450819550505050509b509b9950505050505050505050565b60608142811015610d86576040517f08c379a0000000000000000000000000000000000000000000000000000000008152600401610d7d90615467565b60405180910390fd5b610df27f000000000000000000000000000000000000000000000000000000000000000089888880806020026020016040519081016040528093929190818152602001838360200280828437600081840152601f19601f82011690508083019250505050505050613714565b9150868260018451610e0491906154b6565b81518110610e1557610e146154ea565b5b60200260200101511015610e5e576040517f08c379a0000000000000000000000000000000000000000000000000000000008152600401610e5590615624565b60405180910390fd5b610f2786866000818110610e7557610e746154ea565b5b9050602002016020810190610e8a9190615519565b33610f067f00000000000000000000000000000000000000000000000000000000000000008a8a6000818110610ec357610ec26154ea565b5b9050602002016020810190610ed89190615519565b8b8b6001818110610eec57610eeb6154ea565b5b9050602002016020810190610f019190615519565b61389f565b85600081518110610f1a57610f196154ea565b5b6020026020010151613911565b610f7382878780806020026020016040519081016040528093929190818152602001838360200280828437600081840152601f19601f8201169050808301925050505050505086613a4a565b509695505050505050565b60608142811015610fc4576040517f08c379a0000000000000000000000000000000000000000000000000000000008152600401610fbb90615467565b60405180910390fd5b7f000000000000000000000000000000000000000000000000000000000000000073ffffffffffffffffffffffffffffffffffffffff16868660018989905061100d91906154b6565b81811061101d5761101c6154ea565b5b90506020020160208101906110329190615519565b73ffffffffffffffffffffffffffffffffffffffff1614611088576040517f08c379a000000000000000000000000000000000000000000000000000000000815260040161107f90615592565b60405180910390fd5b6110f47f000000000000000000000000000000000000000000000000000000000000000089888880806020026020016040519081016040528093929190818152602001838360200280828437600081840152601f19601f82011690508083019250505050505050613ca3565b9150868260008151811061110b5761110a6154ea565b5b60200260200101511115611154576040517f08c379a000000000000000000000000000000000000000000000000000000000815260040161114b90615743565b60405180910390fd5b61121d8686600081811061116b5761116a6154ea565b5b90506020020160208101906111809190615519565b336111fc7f00000000000000000000000000000000000000000000000000000000000000008a8a60008181106111b9576111b86154ea565b5b90506020020160208101906111ce9190615519565b8b8b60018181106111e2576111e16154ea565b5b90506020020160208101906111f79190615519565b61389f565b856000815181106112105761120f6154ea565b5b6020026020010151613911565b61126982878780806020026020016040519081016040528093929190818152602001838360200280828437600081840152601f19601f8201169050808301925050505050505030613a4a565b7f000000000000000000000000000000000000000000000000000000000000000073ffffffffffffffffffffffffffffffffffffffff16632e1a7d4d83600185516112b491906154b6565b815181106112c5576112c46154ea565b5b60200260200101516040518263ffffffff1660e01b81526004016112e99190614baa565b600060405180830381600087803b15801561130357600080fd5b505af1158015611317573d6000803e3d6000fd5b5050505061134c84836001855161132e91906154b6565b8151811061133f5761133e6154ea565b5b602002602001015161350e565b509695505050505050565b6000806113a57f00000000000000000000000000000000000000000000000000000000000000008d7f000000000000000000000000000000000000000000000000000000000000000061389f565b90506000866113b4578b6113d6565b7fffffffffffffffffffffffffffffffffffffffffffffffffffffffffffffffff5b90508173ffffffffffffffffffffffffffffffffffffffff1663d505accf3330848c8b8b8b6040518863ffffffff1660e01b815260040161141d9796959493929190615662565b600060405180830381600087803b15801561143757600080fd5b505af115801561144b573d6000803e3d6000fd5b5050505061145d8d8d8d8d8d8d612177565b925050509a9950505050505050505050565b80428110156114b3576040517f08c379a00000000000000000000000000000000000000000000000000000000081526004016114aa90615467565b60405180910390fd5b611561858560008181106114ca576114c96154ea565b5b90506020020160208101906114df9190615519565b3361155b7f000000000000000000000000000000000000000000000000000000000000000089896000818110611518576115176154ea565b5b905060200201602081019061152d9190615519565b8a8a6001818110611541576115406154ea565b5b90506020020160208101906115569190615519565b61389f565b8a613911565b6000858560018888905061157591906154b6565b818110611585576115846154ea565b5b905060200201602081019061159a9190615519565b73ffffffffffffffffffffffffffffffffffffffff166370a08231856040518263ffffffff1660e01b81526004016115d29190615260565b602060405180830381865afa1580156115ef573d6000803e3d6000fd5b505050506040513d601f19601f820116820180604052508101906116139190615778565b9050611660868680806020026020016040519081016040528093929190818152602001838360200280828437600081840152601f19601f8201169050808301925050505050505085613e3e565b8661172382888860018b8b905061167791906154b6565b818110611687576116866154ea565b5b905060200201602081019061169c9190615519565b73ffffffffffffffffffffffffffffffffffffffff166370a08231886040518263ffffffff1660e01b81526004016116d49190615260565b602060405180830381865afa1580156116f1573d6000803e3d6000fd5b505050506040513d601f19601f820116820180604052508101906117159190615778565b6141ef90919063ffffffff16565b1015611764576040517f08c379a000000000000000000000000000000000000000000000000000000000815260040161175b90615624565b60405180910390fd5b5050505050505050565b80428110156117b2576040517f08c379a00000000000000000000000000000000000000000000000000000000081526004016117a990615467565b60405180910390fd5b7f000000000000000000000000000000000000000000000000000000000000000073ffffffffffffffffffffffffffffffffffffffff1685856001888890506117fb91906154b6565b81811061180b5761180a6154ea565b5b90506020020160208101906118209190615519565b73ffffffffffffffffffffffffffffffffffffffff1614611876576040517f08c379a000000000000000000000000000000000000000000000000000000000815260040161186d90615592565b60405180910390fd5b6119248585600081811061188d5761188c6154ea565b5b90506020020160208101906118a29190615519565b3361191e7f0000000000000000000000000000000000000000000000000000000000000000898960008181106118db576118da6154ea565b5b90506020020160208101906118f09190615519565b8a8a6001818110611904576119036154ea565b5b90506020020160208101906119199190615519565b61389f565b8a613911565b61196f858580806020026020016040519081016040528093929190818152602001838360200280828437600081840152601f19601f8201169050808301925050505050505030613e3e565b60007f000000000000000000000000000000000000000000000000000000000000000073ffffffffffffffffffffffffffffffffffffffff166370a08231306040518263ffffffff1660e01b81526004016119ca9190615260565b602060405180830381865afa1580156119e7573d6000803e3d6000fd5b505050506040513d601f19601f82011682018060405250810190611a0b9190615778565b905086811015611a50576040517f08c379a0000000000000000000000000000000000000000000000000000000008152600401611a4790615624565b60405180910390fd5b7f000000000000000000000000000000000000000000000000000000000000000073ffffffffffffffffffffffffffffffffffffffff16632e1a7d4d826040518263ffffffff1660e01b8152600401611aa99190614baa565b600060405180830381600087803b158015611ac357600080fd5b505af1158015611ad7573d6000803e3d6000fd5b50505050611ae5848261350e565b5050505050505050565b60608142811015611b35576040517f08c379a0000000000000000000000000000000000000000000000000000000008152600401611b2c90615467565b60405180910390fd5b7f000000000000000000000000000000000000000000000000000000000000000073ffffffffffffffffffffffffffffffffffffffff1686866000818110611b8057611b7f6154ea565b5b9050602002016020810190611b959190615519565b73ffffffffffffffffffffffffffffffffffffffff1614611beb576040517f08c379a0000000000000000000000000000000000000000000000000000000008152600401611be290615592565b60405180910390fd5b611c577f000000000000000000000000000000000000000000000000000000000000000034888880806020026020016040519081016040528093929190818152602001838360200280828437600081840152601f19601f82011690508083019250505050505050613714565b9150868260018451611c6991906154b6565b81518110611c7a57611c796154ea565b5b60200260200101511015611cc3576040517f08c379a0000000000000000000000000000000000000000000000000000000008152600401611cba90615624565b60405180910390fd5b7f000000000000000000000000000000000000000000000000000000000000000073ffffffffffffffffffffffffffffffffffffffff1663d0e30db083600081518110611d1357611d126154ea565b5b60200260200101516040518263ffffffff1660e01b81526004016000604051808303818588803b158015611d4657600080fd5b505af1158015611d5a573d6000803e3d6000fd5b50505050507f000000000000000000000000000000000000000000000000000000000000000073ffffffffffffffffffffffffffffffffffffffff1663a9059cbb611e167f000000000000000000000000000000000000000000000000000000000000000089896000818110611dd357611dd26154ea565b5b9050602002016020810190611de89190615519565b8a8a6001818110611dfc57611dfb6154ea565b5b9050602002016020810190611e119190615519565b61389f565b84600081518110611e2a57611e296154ea565b5b60200260200101516040518363ffffffff1660e01b8152600401611e4f9291906157a5565b6020604051808303816000875af1158015611e6e573d6000803e3d6000fd5b505050506040513d601f19601f82011682018060405250810190611e9291906157e3565b611e9f57611e9e6149bb565b5b611eeb82878780806020026020016040519081016040528093929190818152602001838360200280828437600081840152601f19601f8201169050808301925050505050505086613a4a565b5095945050505050565b6000611f02848484614248565b90509392505050565b60608142811015611f51576040517f08c379a0000000000000000000000000000000000000000000000000000000008152600401611f4890615467565b60405180910390fd5b611fbd7f000000000000000000000000000000000000000000000000000000000000000089888880806020026020016040519081016040528093929190818152602001838360200280828437600081840152601f19601f82011690508083019250505050505050613ca3565b91508682600081518110611fd457611fd36154ea565b5b6020026020010151111561201d576040517f08c379a000000000000000000000000000000000000000000000000000000000815260040161201490615743565b60405180910390fd5b6120e686866000818110612034576120336154ea565b5b90506020020160208101906120499190615519565b336120c57f00000000000000000000000000000000000000000000000000000000000000008a8a6000818110612082576120816154ea565b5b90506020020160208101906120979190615519565b8b8b60018181106120ab576120aa6154ea565b5b90506020020160208101906120c09190615519565b61389f565b856000815181106120d9576120d86154ea565b5b6020026020010151613911565b61213282878780806020026020016040519081016040528093929190818152602001838360200280828437600081840152601f19601f8201169050808301925050505050505086613a4a565b509695505050505050565b7f000000000000000000000000000000000000000000000000000000000000000081565b600061216e84848461435b565b90509392505050565b600081428110156121bd576040517f08c379a00000000000000000000000000000000000000000000000000000000081526004016121b490615467565b60405180910390fd5b6121ec887f000000000000000000000000000000000000000000000000000000000000000089898930896127c8565b90508092505061227688858a73ffffffffffffffffffffffffffffffffffffffff166370a08231306040518263ffffffff1660e01b81526004016122309190615260565b602060405180830381865afa15801561224d573d6000803e3d6000fd5b505050506040513d601f19601f820116820180604052508101906122719190615778565b6133d8565b7f000000000000000000000000000000000000000000000000000000000000000073ffffffffffffffffffffffffffffffffffffffff16632e1a7d4d836040518263ffffffff1660e01b81526004016122cf9190614baa565b600060405180830381600087803b1580156122e957600080fd5b505af11580156122fd573d6000803e3d6000fd5b5050505061230b848361350e565b509695505050505050565b804281101561235a576040517f08c379a000000000000000000000000000000000000000000000000000000000815260040161235190615467565b60405180910390fd5b7f000000000000000000000000000000000000000000000000000000000000000073ffffffffffffffffffffffffffffffffffffffff16858560008181106123a5576123a46154ea565b5b90506020020160208101906123ba9190615519565b73ffffffffffffffffffffffffffffffffffffffff1614612410576040517f08c379a000000000000000000000000000000000000000000000000000000000815260040161240790615592565b60405180910390fd5b60003490507f000000000000000000000000000000000000000000000000000000000000000073ffffffffffffffffffffffffffffffffffffffff1663d0e30db0826040518263ffffffff1660e01b81526004016000604051808303818588803b15801561247d57600080fd5b505af1158015612491573d6000803e3d6000fd5b50505050507f000000000000000000000000000000000000000000000000000000000000000073ffffffffffffffffffffffffffffffffffffffff1663a9059cbb61254d7f00000000000000000000000000000000000000000000000000000000000000008989600081811061250a576125096154ea565b5b905060200201602081019061251f9190615519565b8a8a6001818110612533576125326154ea565b5b90506020020160208101906125489190615519565b61389f565b836040518363ffffffff1660e01b815260040161256b9291906157a5565b6020604051808303816000875af115801561258a573d6000803e3d6000fd5b505050506040513d601f19601f820116820180604052508101906125ae91906157e3565b6125bb576125ba6149bb565b5b600086866001898990506125cf91906154b6565b8181106125df576125de6154ea565b5b90506020020160208101906125f49190615519565b73ffffffffffffffffffffffffffffffffffffffff166370a08231866040518263ffffffff1660e01b815260040161262c9190615260565b602060405180830381865afa158015612649573d6000803e3d6000fd5b505050506040513d601f19601f8201168201806040525081019061266d9190615778565b90506126ba878780806020026020016040519081016040528093929190818152602001838360200280828437600081840152601f19601f8201169050808301925050505050505086613e3e565b8761277d82898960018c8c90506126d191906154b6565b8181106126e1576126e06154ea565b5b90506020020160208101906126f69190615519565b73ffffffffffffffffffffffffffffffffffffffff166370a08231896040518263ffffffff1660e01b815260040161272e9190615260565b602060405180830381865afa15801561274b573d6000803e3d6000fd5b505050506040513d601f19601f8201168201806040525081019061276f9190615778565b6141ef90919063ffffffff16565b10156127be576040517f08c379a00000000000000000000000000000000000000000000000000000000081526004016127b590615624565b60405180910390fd5b5050505050505050565b600080824281101561280f576040517f08c379a000000000000000000000000000000000000000000000000000000000815260040161280690615467565b60405180910390fd5b600061283c7f00000000000000000000000000000000000000000000000000000000000000008c8c61389f565b90508073ffffffffffffffffffffffffffffffffffffffff166323b872dd33838c6040518463ffffffff1660e01b815260040161287b93929190615810565b6020604051808303816000875af115801561289a573d6000803e3d6000fd5b505050506040513d601f19601f820116820180604052508101906128be91906157e3565b506000808273ffffffffffffffffffffffffffffffffffffffff166389afcb44896040518263ffffffff1660e01b81526004016128fb9190615260565b60408051808303816000875af1158015612919573d6000803e3d6000fd5b505050506040513d601f19601f8201168201806040525081019061293d9190615847565b91509150600061294d8e8e614415565b5090508073ffffffffffffffffffffffffffffffffffffffff168e73ffffffffffffffffffffffffffffffffffffffff161461298a57818361298d565b82825b80975081985050508a8710156129d8576040517f08c379a00000000000000000000000000000000000000000000000000000000081526004016129cf906158f9565b60405180910390fd5b89861015612a1b576040517f08c379a0000000000000000000000000000000000000000000000000000000008152600401612a129061598b565b60405180910390fd5b505050505097509795505050505050565b7f000000000000000000000000000000000000000000000000000000000000000081565b6060612a7d7f00000000000000000000000000000000000000000000000000000000000000008484613714565b905092915050565b6000806000612ad57f00000000000000000000000000000000000000000000000000000000000000008e7f000000000000000000000000000000000000000000000000000000000000000061389f565b9050600087612ae4578c612b06565b7fffffffffffffffffffffffffffffffffffffffffffffffffffffffffffffffff5b90508173ffffffffffffffffffffffffffffffffffffffff1663d505accf3330848d8c8c8c6040518863ffffffff1660e01b8152600401612b4d9796959493929190615662565b600060405180830381600087803b158015612b6757600080fd5b505af1158015612b7b573d6000803e3d6000fd5b50505050612b8d8e8e8e8e8e8e6106e3565b809450819550505050509a509a98505050505050505050565b60008060008342811015612bef576040517f08c379a0000000000000000000000000000000000000000000000000000000008152600401612be690615467565b60405180910390fd5b612bfd8c8c8c8c8c8c614543565b80945081955050506000612c327f00000000000000000000000000000000000000000000000000000000000000008e8e61389f565b9050612c408d338388613911565b612c4c8c338387613911565b8073ffffffffffffffffffffffffffffffffffffffff16636a627842886040518263ffffffff1660e01b8152600401612c859190615260565b6020604051808303816000875af1158015612ca4573d6000803e3d6000fd5b505050506040513d601f19601f82011682018060405250810190612cc89190615778565b92505050985098509895505050505050565b60008060008342811015612d23576040517f08c379a0000000000000000000000000000000000000000000000000000000008152600401612d1a90615467565b60405180910390fd5b612d518a7f00000000000000000000000000000000000000000000000000000000000000008b348c8c614543565b80945081955050506000612da67f00000000000000000000000000000000000000000000000000000000000000008c7f000000000000000000000000000000000000000000000000000000000000000061389f565b9050612db48b338388613911565b7f000000000000000000000000000000000000000000000000000000000000000073ffffffffffffffffffffffffffffffffffffffff1663d0e30db0856040518263ffffffff1660e01b81526004016000604051808303818588803b158015612e1c57600080fd5b505af1158015612e30573d6000803e3d6000fd5b50505050507f000000000000000000000000000000000000000000000000000000000000000073ffffffffffffffffffffffffffffffffffffffff1663a9059cbb82866040518363ffffffff1660e01b8152600401612e909291906157a5565b6020604051808303816000875af1158015612eaf573d6000803e3d6000fd5b505050506040513d601f19601f82011682018060405250810190612ed391906157e3565b612ee057612edf6149bb565b5b8073ffffffffffffffffffffffffffffffffffffffff16636a627842886040518263ffffffff1660e01b8152600401612f199190615260565b6020604051808303816000875af1158015612f38573d6000803e3d6000fd5b505050506040513d601f19601f82011682018060405250810190612f5c9190615778565b925083341115612f7c57612f7b338534612f7691906154b6565b61350e565b5b505096509650969350505050565b60608142811015612fd0576040517f08c379a0000000000000000000000000000000000000000000000000000000008152600401612fc790615467565b60405180910390fd5b7f000000000000000000000000000000000000000000000000000000000000000073ffffffffffffffffffffffffffffffffffffffff168686600081811061301b5761301a6154ea565b5b90506020020160208101906130309190615519565b73ffffffffffffffffffffffffffffffffffffffff1614613086576040517f08c379a000000000000000000000000000000000000000000000000000000000815260040161307d90615592565b60405180910390fd5b6130f27f000000000000000000000000000000000000000000000000000000000000000088888880806020026020016040519081016040528093929190818152602001838360200280828437600081840152601f19601f82011690508083019250505050505050613ca3565b91503482600081518110613109576131086154ea565b5b60200260200101511115613152576040517f08c379a000000000000000000000000000000000000000000000000000000000815260040161314990615743565b60405180910390fd5b7f000000000000000000000000000000000000000000000000000000000000000073ffffffffffffffffffffffffffffffffffffffff1663d0e30db0836000815181106131a2576131a16154ea565b5b60200260200101516040518263ffffffff1660e01b81526004016000604051808303818588803b1580156131d557600080fd5b505af11580156131e9573d6000803e3d6000fd5b50505050507f000000000000000000000000000000000000000000000000000000000000000073ffffffffffffffffffffffffffffffffffffffff1663a9059cbb6132a57f000000000000000000000000000000000000000000000000000000000000000089896000818110613262576132616154ea565b5b90506020020160208101906132779190615519565b8a8a600181811061328b5761328a6154ea565b5b90506020020160208101906132a09190615519565b61389f565b846000815181106132b9576132b86154ea565b5b60200260200101516040518363ffffffff1660e01b81526004016132de9291906157a5565b6020604051808303816000875af11580156132fd573d6000803e3d6000fd5b505050506040513d601f19601f8201168201806040525081019061332191906157e3565b61332e5761332d6149bb565b5b61337a82878780806020026020016040519081016040528093929190818152602001838360200280828437600081840152601f19601f8201169050808301925050505050505086613a4a565b8160008151811061338e5761338d6154ea565b5b60200260200101513411156133ce576133cd33836000815181106133b5576133b46154ea565b5b6020026020010151346133c891906154b6565b61350e565b5b5095945050505050565b6000808473ffffffffffffffffffffffffffffffffffffffff1663a9059cbb858560405160240161340a9291906157a5565b6040516020818303038152906040529060e01b6020820180517bffffffffffffffffffffffffffffffffffffffffffffffffffffffff83818316178352505050506040516134589190615a25565b6000604051808303816000865af19150503d8060008114613495576040519150601f19603f3d011682016040523d82523d6000602084013e61349a565b606091505b50915091508180156134c857506000815114806134c75750808060200190518101906134c691906157e3565b5b5b613507576040517f08c379a00000000000000000000000000000000000000000000000000000000081526004016134fe90615aae565b60405180910390fd5b5050505050565b60008273ffffffffffffffffffffffffffffffffffffffff1682600067ffffffffffffffff81111561354357613542614db5565b5b6040519080825280601f01601f1916602001820160405280156135755781602001600182028036833780820191505090505b506040516135839190615a25565b60006040518083038185875af1925050503d80600081146135c0576040519150601f19603f3d011682016040523d82523d6000602084013e6135c5565b606091505b5050905080613609576040517f08c379a000000000000000000000000000000000000000000000000000000000815260040161360090615b40565b60405180910390fd5b505050565b6000808411613652576040517f08c379a000000000000000000000000000000000000000000000000000000000815260040161364990615bd2565b60405180910390fd5b6000831180156136625750600082115b6136a1576040517f08c379a000000000000000000000000000000000000000000000000000000000815260040161369890615c64565b60405180910390fd5b60006136b86103e5866147f290919063ffffffff16565b905060006136cf84836147f290919063ffffffff16565b905060006136fa836136ec6103e8896147f290919063ffffffff16565b61485f90919063ffffffff16565b905080826137089190615cb3565b93505050509392505050565b606060028251101561375b576040517f08c379a000000000000000000000000000000000000000000000000000000000815260040161375290615d30565b60405180910390fd5b815167ffffffffffffffff81111561377657613775614db5565b5b6040519080825280602002602001820160405280156137a45781602001602082028036833780820191505090505b50905082816000815181106137bc576137bb6154ea565b5b60200260200101818152505060005b600183516137d991906154b6565b8110156138975760008061382e878685815181106137fa576137f96154ea565b5b6020026020010151876001876138109190615d50565b81518110613821576138206154ea565b5b60200260200101516148b8565b91509150613857848481518110613848576138476154ea565b5b6020026020010151838361360e565b846001856138659190615d50565b81518110613876576138756154ea565b5b6020026020010181815250505050808061388f90615da6565b9150506137cb565b509392505050565b60008060006138ae8585614415565b915091508582826040516020016138c6929190615e37565b604051602081830303815290604052805190602001206040516020016138ed929190615f27565b6040516020818303038152906040528051906020012060001c925050509392505050565b6000808573ffffffffffffffffffffffffffffffffffffffff166323b872dd86868660405160240161394593929190615810565b6040516020818303038152906040529060e01b6020820180517bffffffffffffffffffffffffffffffffffffffffffffffffffffffff83818316178352505050506040516139939190615a25565b6000604051808303816000865af19150503d80600081146139d0576040519150601f19603f3d011682016040523d82523d6000602084013e6139d5565b606091505b5091509150818015613a035750600081511480613a02575080806020019051810190613a0191906157e3565b5b5b613a42576040517f08c379a0000000000000000000000000000000000000000000000000000000008152600401613a3990615fdb565b60405180910390fd5b505050505050565b60005b60018351613a5b91906154b6565b811015613c9d57600080848381518110613a7857613a776154ea565b5b602002602001015185600185613a8e9190615d50565b81518110613a9f57613a9e6154ea565b5b6020026020010151915091506000613ab78383614415565b509050600087600186613aca9190615d50565b81518110613adb57613ada6154ea565b5b602002602001015190506000808373ffffffffffffffffffffffffffffffffffffffff168673ffffffffffffffffffffffffffffffffffffffff1614613b2357826000613b27565b6000835b91509150600060028a51613b3b91906154b6565b8810613b475788613b99565b613b987f0000000000000000000000000000000000000000000000000000000000000000878c60028c613b7a9190615d50565b81518110613b8b57613b8a6154ea565b5b602002602001015161389f565b5b9050613bc67f0000000000000000000000000000000000000000000000000000000000000000888861389f565b73ffffffffffffffffffffffffffffffffffffffff1663022c0d9f848484600067ffffffffffffffff811115613bff57613bfe614db5565b5b6040519080825280601f01601f191660200182016040528015613c315781602001600182028036833780820191505090505b506040518563ffffffff1660e01b8152600401613c519493929190616045565b600060405180830381600087803b158015613c6b57600080fd5b505af1158015613c7f573d6000803e3d6000fd5b50505050505050505050508080613c9590615da6565b915050613a4d565b50505050565b6060600282511015613cea576040517f08c379a0000000000000000000000000000000000000000000000000000000008152600401613ce190615d30565b60405180910390fd5b815167ffffffffffffffff811115613d0557613d04614db5565b5b604051908082528060200260200182016040528015613d335781602001602082028036833780820191505090505b509050828160018351613d4691906154b6565b81518110613d5757613d566154ea565b5b602002602001018181525050600060018351613d7391906154b6565b90505b6000811115613e3657600080613dcd8786600186613d9491906154b6565b81518110613da557613da46154ea565b5b6020026020010151878681518110613dc057613dbf6154ea565b5b60200260200101516148b8565b91509150613df6848481518110613de757613de66154ea565b5b60200260200101518383614248565b84600185613e0491906154b6565b81518110613e1557613e146154ea565b5b60200260200101818152505050508080613e2e90616091565b915050613d76565b509392505050565b60005b60018351613e4f91906154b6565b8110156141ea57600080848381518110613e6c57613e6b6154ea565b5b602002602001015185600185613e829190615d50565b81518110613e9357613e926154ea565b5b6020026020010151915091506000613eab8383614415565b5090506000613edb7f0000000000000000000000000000000000000000000000000000000000000000858561389f565b90506000806000808473ffffffffffffffffffffffffffffffffffffffff16630902f1ac6040518163ffffffff1660e01b8152600401606060405180830381865afa158015613f2e573d6000803e3d6000fd5b505050506040513d601f19601f82011682018060405250810190613f52919061613d565b506dffffffffffffffffffffffffffff1691506dffffffffffffffffffffffffffff1691506000808773ffffffffffffffffffffffffffffffffffffffff168a73ffffffffffffffffffffffffffffffffffffffff1614613fb4578284613fb7565b83835b91509150614047828b73ffffffffffffffffffffffffffffffffffffffff166370a082318a6040518263ffffffff1660e01b8152600401613ff89190615260565b602060405180830381865afa158015614015573d6000803e3d6000fd5b505050506040513d601f19601f820116820180604052508101906140399190615778565b6141ef90919063ffffffff16565b955061405486838361360e565b9450505050506000808573ffffffffffffffffffffffffffffffffffffffff168873ffffffffffffffffffffffffffffffffffffffff16146140985782600061409c565b6000835b91509150600060028c516140b091906154b6565b8a106140bc578a61410e565b61410d7f0000000000000000000000000000000000000000000000000000000000000000898e60028e6140ef9190615d50565b81518110614100576140ff6154ea565b5b602002602001015161389f565b5b90508573ffffffffffffffffffffffffffffffffffffffff1663022c0d9f848484600067ffffffffffffffff81111561414a57614149614db5565b5b6040519080825280601f01601f19166020018201604052801561417c5781602001600182028036833780820191505090505b506040518563ffffffff1660e01b815260040161419c9493929190616045565b600060405180830381600087803b1580156141b657600080fd5b505af11580156141ca573d6000803e3d6000fd5b5050505050505050505050505080806141e290615da6565b915050613e41565b505050565b60008282846141fe91906154b6565b9150811115614242576040517f08c379a0000000000000000000000000000000000000000000000000000000008152600401614239906161dc565b60405180910390fd5b92915050565b600080841161428c576040517f08c379a00000000000000000000000000000000000000000000000000000000081526004016142839061626e565b60405180910390fd5b60008311801561429c5750600082115b6142db576040517f08c379a00000000000000000000000000000000000000000000000000000000081526004016142d290615c64565b60405180910390fd5b60006143046103e86142f687876147f290919063ffffffff16565b6147f290919063ffffffff16565b9050600061432f6103e561432188876141ef90919063ffffffff16565b6147f290919063ffffffff16565b9050614350600182846143429190615cb3565b61485f90919063ffffffff16565b925050509392505050565b600080841161439f576040517f08c379a000000000000000000000000000000000000000000000000000000000815260040161439690616300565b60405180910390fd5b6000831180156143af5750600082115b6143ee576040517f08c379a00000000000000000000000000000000000000000000000000000000081526004016143e590615c64565b60405180910390fd5b8261440283866147f290919063ffffffff16565b61440c9190615cb3565b90509392505050565b6000808273ffffffffffffffffffffffffffffffffffffffff168473ffffffffffffffffffffffffffffffffffffffff161415614487576040517f08c379a000000000000000000000000000000000000000000000000000000000815260040161447e90616392565b60405180910390fd5b8273ffffffffffffffffffffffffffffffffffffffff168473ffffffffffffffffffffffffffffffffffffffff16106144c15782846144c4565b83835b8092508193505050600073ffffffffffffffffffffffffffffffffffffffff168273ffffffffffffffffffffffffffffffffffffffff16141561453c576040517f08c379a0000000000000000000000000000000000000000000000000000000008152600401614533906163fe565b60405180910390fd5b9250929050565b600080600073ffffffffffffffffffffffffffffffffffffffff167f000000000000000000000000000000000000000000000000000000000000000073ffffffffffffffffffffffffffffffffffffffff1663e6a439058a8a6040518363ffffffff1660e01b81526004016145b992919061641e565b602060405180830381865afa1580156145d6573d6000803e3d6000fd5b505050506040513d601f19601f820116820180604052508101906145fa919061645c565b73ffffffffffffffffffffffffffffffffffffffff1614156146b6577f000000000000000000000000000000000000000000000000000000000000000073ffffffffffffffffffffffffffffffffffffffff1663c9c6539689896040518363ffffffff1660e01b815260040161467192919061641e565b6020604051808303816000875af1158015614690573d6000803e3d6000fd5b505050506040513d601f19601f820116820180604052508101906146b4919061645c565b505b6000806146e47f00000000000000000000000000000000000000000000000000000000000000008b8b6148b8565b915091506000821480156146f85750600081145b1561470c57878780945081955050506147e5565b600061471989848461435b565b90508781116147745785811015614765576040517f08c379a000000000000000000000000000000000000000000000000000000000815260040161475c9061598b565b60405180910390fd5b888180955081965050506147e3565b600061478189848661435b565b905089811115614794576147936149bb565b5b878110156147d7576040517f08c379a00000000000000000000000000000000000000000000000000000000081526004016147ce906158f9565b60405180910390fd5b80898096508197505050505b505b5050965096945050505050565b60008082148061481a57508282838561480b9190616489565b9250826148189190615cb3565b145b614859576040517f08c379a00000000000000000000000000000000000000000000000000000000081526004016148509061652f565b60405180910390fd5b92915050565b600082828461486e9190615d50565b91508110156148b2576040517f08c379a00000000000000000000000000000000000000000000000000000000081526004016148a99061659b565b60405180910390fd5b92915050565b60008060006148c78585614415565b5090506000806148d888888861389f565b73ffffffffffffffffffffffffffffffffffffffff16630902f1ac6040518163ffffffff1660e01b8152600401606060405180830381865afa158015614922573d6000803e3d6000fd5b505050506040513d601f19601f82011682018060405250810190614946919061613d565b506dffffffffffffffffffffffffffff1691506dffffffffffffffffffffffffffff1691508273ffffffffffffffffffffffffffffffffffffffff168773ffffffffffffffffffffffffffffffffffffffff16146149a55780826149a8565b81815b8095508196505050505050935093915050565b7f4e487b7100000000000000000000000000000000000000000000000000000000600052600160045260246000fd5b6000604051905090565b600080fd5b600080fd5b600073ffffffffffffffffffffffffffffffffffffffff82169050919050565b6000614a29826149fe565b9050919050565b614a3981614a1e565b8114614a4457600080fd5b50565b600081359050614a5681614a30565b92915050565b6000819050919050565b614a6f81614a5c565b8114614a7a57600080fd5b50565b600081359050614a8c81614a66565b92915050565b60008060008060008060c08789031215614aaf57614aae6149f4565b5b6000614abd89828a01614a47565b9650506020614ace89828a01614a7d565b9550506040614adf89828a01614a7d565b9450506060614af089828a01614a7d565b9350506080614b0189828a01614a47565b92505060a0614b1289828a01614a7d565b9150509295509295509295565b614b2881614a5c565b82525050565b6000604082019050614b436000830185614b1f565b614b506020830184614b1f565b9392505050565b600080600060608486031215614b7057614b6f6149f4565b5b6000614b7e86828701614a7d565b9350506020614b8f86828701614a7d565b9250506040614ba086828701614a7d565b9150509250925092565b6000602082019050614bbf6000830184614b1f565b92915050565b600080fd5b600080fd5b600080fd5b60008083601f840112614bea57614be9614bc5565b5b8235905067ffffffffffffffff811115614c0757614c06614bca565b5b602083019150836020820283011115614c2357614c22614bcf565b5b9250929050565b60008060008060008060a08789031215614c4757614c466149f4565b5b6000614c5589828a01614a7d565b9650506020614c6689828a01614a7d565b955050604087013567ffffffffffffffff811115614c8757614c866149f9565b5b614c9389828a01614bd4565b94509450506060614ca689828a01614a47565b9250506080614cb789828a01614a7d565b9150509295509295509295565b600081519050919050565b600082825260208201905092915050565b6000819050602082019050919050565b614cf981614a5c565b82525050565b6000614d0b8383614cf0565b60208301905092915050565b6000602082019050919050565b6000614d2f82614cc4565b614d398185614ccf565b9350614d4483614ce0565b8060005b83811015614d75578151614d5c8882614cff565b9750614d6783614d17565b925050600181019050614d48565b5085935050505092915050565b60006020820190508181036000830152614d9c8184614d24565b905092915050565b6000601f19601f8301169050919050565b7f4e487b7100000000000000000000000000000000000000000000000000000000600052604160045260246000fd5b614ded82614da4565b810181811067ffffffffffffffff82111715614e0c57614e0b614db5565b5b80604052505050565b6000614e1f6149ea565b9050614e2b8282614de4565b919050565b600067ffffffffffffffff821115614e4b57614e4a614db5565b5b602082029050602081019050919050565b6000614e6f614e6a84614e30565b614e15565b90508083825260208201905060208402830185811115614e9257614e91614bcf565b5b835b81811015614ebb5780614ea78882614a47565b845260208401935050602081019050614e94565b5050509392505050565b600082601f830112614eda57614ed9614bc5565b5b8135614eea848260208601614e5c565b91505092915050565b60008060408385031215614f0a57614f096149f4565b5b6000614f1885828601614a7d565b925050602083013567ffffffffffffffff811115614f3957614f386149f9565b5b614f4585828601614ec5565b9150509250929050565b60008115159050919050565b614f6481614f4f565b8114614f6f57600080fd5b50565b600081359050614f8181614f5b565b92915050565b600060ff82169050919050565b614f9d81614f87565b8114614fa857600080fd5b50565b600081359050614fba81614f94565b92915050565b6000819050919050565b614fd381614fc0565b8114614fde57600080fd5b50565b600081359050614ff081614fca565b92915050565b60008060008060008060008060008060006101608c8e03121561501c5761501b6149f4565b5b600061502a8e828f01614a47565b9b5050602061503b8e828f01614a47565b9a5050604061504c8e828f01614a7d565b995050606061505d8e828f01614a7d565b985050608061506e8e828f01614a7d565b97505060a061507f8e828f01614a47565b96505060c06150908e828f01614a7d565b95505060e06150a18e828f01614f72565b9450506101006150b38e828f01614fab565b9350506101206150c58e828f01614fe1565b9250506101406150d78e828f01614fe1565b9150509295989b509295989b9093969950565b6000806000806000806000806000806101408b8d03121561510e5761510d6149f4565b5b600061511c8d828e01614a47565b9a5050602061512d8d828e01614a7d565b995050604061513e8d828e01614a7d565b985050606061514f8d828e01614a7d565b97505060806151608d828e01614a47565b96505060a06151718d828e01614a7d565b95505060c06151828d828e01614f72565b94505060e06151938d828e01614fab565b9350506101006151a58d828e01614fe1565b9250506101206151b78d828e01614fe1565b9150509295989b9194979a5092959850565b6000806000806000608086880312156151e5576151e46149f4565b5b60006151f388828901614a7d565b955050602086013567ffffffffffffffff811115615214576152136149f9565b5b61522088828901614bd4565b9450945050604061523388828901614a47565b925050606061524488828901614a7d565b9150509295509295909350565b61525a81614a1e565b82525050565b60006020820190506152756000830184615251565b92915050565b600080600080600080600060e0888a03121561529a576152996149f4565b5b60006152a88a828b01614a47565b97505060206152b98a828b01614a47565b96505060406152ca8a828b01614a7d565b95505060606152db8a828b01614a7d565b94505060806152ec8a828b01614a7d565b93505060a06152fd8a828b01614a47565b92505060c061530e8a828b01614a7d565b91505092959891949750929550565b600080600080600080600080610100898b03121561533e5761533d6149f4565b5b600061534c8b828c01614a47565b985050602061535d8b828c01614a47565b975050604061536e8b828c01614a7d565b965050606061537f8b828c01614a7d565b95505060806153908b828c01614a7d565b94505060a06153a18b828c01614a7d565b93505060c06153b28b828c01614a47565b92505060e06153c38b828c01614a7d565b9150509295985092959890939650565b60006060820190506153e86000830186614b1f565b6153f56020830185614b1f565b6154026040830184614b1f565b949350505050565b600082825260208201905092915050565b7f556e69737761705632526f757465723a20455850495245440000000000000000600082015250565b600061545160188361540a565b915061545c8261541b565b602082019050919050565b6000602082019050818103600083015261548081615444565b9050919050565b7f4e487b7100000000000000000000000000000000000000000000000000000000600052601160045260246000fd5b60006154c182614a5c565b91506154cc83614a5c565b9250828210156154df576154de615487565b5b828203905092915050565b7f4e487b7100000000000000000000000000000000000000000000000000000000600052603260045260246000fd5b60006020828403121561552f5761552e6149f4565b5b600061553d84828501614a47565b91505092915050565b7f556e69737761705632526f757465723a20494e56414c49445f50415448000000600082015250565b600061557c601d8361540a565b915061558782615546565b602082019050919050565b600060208201905081810360008301526155ab8161556f565b9050919050565b7f556e69737761705632526f757465723a20494e53554646494349454e545f4f5560008201527f545055545f414d4f554e54000000000000000000000000000000000000000000602082015250565b600061560e602b8361540a565b9150615619826155b2565b604082019050919050565b6000602082019050818103600083015261563d81615601565b9050919050565b61564d81614f87565b82525050565b61565c81614fc0565b82525050565b600060e082019050615677600083018a615251565b6156846020830189615251565b6156916040830188614b1f565b61569e6060830187614b1f565b6156ab6080830186615644565b6156b860a0830185615653565b6156c560c0830184615653565b98975050505050505050565b7f556e69737761705632526f757465723a204558434553534956455f494e50555460008201527f5f414d4f554e5400000000000000000000000000000000000000000000000000602082015250565b600061572d60278361540a565b9150615738826156d1565b604082019050919050565b6000602082019050818103600083015261575c81615720565b9050919050565b60008151905061577281614a66565b92915050565b60006020828403121561578e5761578d6149f4565b5b600061579c84828501615763565b91505092915050565b60006040820190506157ba6000830185615251565b6157c76020830184614b1f565b9392505050565b6000815190506157dd81614f5b565b92915050565b6000602082840312156157f9576157f86149f4565b5b6000615807848285016157ce565b91505092915050565b60006060820190506158256000830186615251565b6158326020830185615251565b61583f6040830184614b1f565b949350505050565b6000806040838503121561585e5761585d6149f4565b5b600061586c85828601615763565b925050602061587d85828601615763565b9150509250929050565b7f556e69737761705632526f757465723a20494e53554646494349454e545f415f60008201527f414d4f554e540000000000000000000000000000000000000000000000000000602082015250565b60006158e360268361540a565b91506158ee82615887565b604082019050919050565b60006020820190508181036000830152615912816158d6565b9050919050565b7f556e69737761705632526f757465723a20494e53554646494349454e545f425f60008201527f414d4f554e540000000000000000000000000000000000000000000000000000602082015250565b600061597560268361540a565b915061598082615919565b604082019050919050565b600060208201905081810360008301526159a481615968565b9050919050565b600081519050919050565b600081905092915050565b60005b838110156159df5780820151818401526020810190506159c4565b838111156159ee576000848401525b50505050565b60006159ff826159ab565b615a0981856159b6565b9350615a198185602086016159c1565b80840191505092915050565b6000615a3182846159f4565b915081905092915050565b7f5472616e7366657248656c7065723a3a736166655472616e736665723a20747260008201527f616e73666572206661696c656400000000000000000000000000000000000000602082015250565b6000615a98602d8361540a565b9150615aa382615a3c565b604082019050919050565b60006020820190508181036000830152615ac781615a8b565b9050919050565b7f5472616e7366657248656c7065723a3a736166655472616e736665724554483a60008201527f20455448207472616e73666572206661696c6564000000000000000000000000602082015250565b6000615b2a60348361540a565b9150615b3582615ace565b604082019050919050565b60006020820190508181036000830152615b5981615b1d565b9050919050565b7f556e697377617056324c6962726172793a20494e53554646494349454e545f4960008201527f4e5055545f414d4f554e54000000000000000000000000000000000000000000602082015250565b6000615bbc602b8361540a565b9150615bc782615b60565b604082019050919050565b60006020820190508181036000830152615beb81615baf565b9050919050565b7f556e697377617056324c6962726172793a20494e53554646494349454e545f4c60008201527f4951554944495459000000000000000000000000000000000000000000000000602082015250565b6000615c4e60288361540a565b9150615c5982615bf2565b604082019050919050565b60006020820190508181036000830152615c7d81615c41565b9050919050565b7f4e487b7100000000000000000000000000000000000000000000000000000000600052601260045260246000fd5b6000615cbe82614a5c565b9150615cc983614a5c565b925082615cd957615cd8615c84565b5b828204905092915050565b7f556e697377617056324c6962726172793a20494e56414c49445f504154480000600082015250565b6000615d1a601e8361540a565b9150615d2582615ce4565b602082019050919050565b60006020820190508181036000830152615d4981615d0d565b9050919050565b6000615d5b82614a5c565b9150615d6683614a5c565b9250827fffffffffffffffffffffffffffffffffffffffffffffffffffffffffffffffff03821115615d9b57615d9a615487565b5b828201905092915050565b6000615db182614a5c565b91507fffffffffffffffffffffffffffffffffffffffffffffffffffffffffffffffff821415615de457615de3615487565b5b600182019050919050565b60008160601b9050919050565b6000615e0782615def565b9050919050565b6000615e1982615dfc565b9050919050565b615e31615e2c82614a1e565b615e0e565b82525050565b6000615e438285615e20565b601482019150615e538284615e20565b6014820191508190509392505050565b600081905092915050565b7fff00000000000000000000000000000000000000000000000000000000000000600082015250565b6000615ea4600183615e63565b9150615eaf82615e6e565b600182019050919050565b6000819050919050565b615ed5615ed082614fc0565b615eba565b82525050565b7ff6d33391f60d3e8bb183479202b4ab74379fdc6cb7e0588645b86092760d0183600082015250565b6000615f11602083615e63565b9150615f1c82615edb565b602082019050919050565b6000615f3282615e97565b9150615f3e8285615e20565b601482019150615f4e8284615ec4565b602082019150615f5d82615f04565b91508190509392505050565b7f5472616e7366657248656c7065723a3a7472616e7366657246726f6d3a20747260008201527f616e7366657246726f6d206661696c6564000000000000000000000000000000602082015250565b6000615fc560318361540a565b9150615fd082615f69565b604082019050919050565b60006020820190508181036000830152615ff481615fb8565b9050919050565b600082825260208201905092915050565b6000616017826159ab565b6160218185615ffb565b93506160318185602086016159c1565b61603a81614da4565b840191505092915050565b600060808201905061605a6000830187614b1f565b6160676020830186614b1f565b6160746040830185615251565b8181036060830152616086818461600c565b905095945050505050565b600061609c82614a5c565b915060008214156160b0576160af615487565b5b600182039050919050565b60006dffffffffffffffffffffffffffff82169050919050565b6160de816160bb565b81146160e957600080fd5b50565b6000815190506160fb816160d5565b92915050565b600063ffffffff82169050919050565b61611a81616101565b811461612557600080fd5b50565b60008151905061613781616111565b92915050565b600080600060608486031215616156576161556149f4565b5b6000616164868287016160ec565b9350506020616175868287016160ec565b925050604061618686828701616128565b9150509250925092565b7f64732d6d6174682d7375622d756e646572666c6f770000000000000000000000600082015250565b60006161c660158361540a565b91506161d182616190565b602082019050919050565b600060208201905081810360008301526161f5816161b9565b9050919050565b7f556e697377617056324c6962726172793a20494e53554646494349454e545f4f60008201527f55545055545f414d4f554e540000000000000000000000000000000000000000602082015250565b6000616258602c8361540a565b9150616263826161fc565b604082019050919050565b600060208201905081810360008301526162878161624b565b9050919050565b7f556e697377617056324c6962726172793a20494e53554646494349454e545f4160008201527f4d4f554e54000000000000000000000000000000000000000000000000000000602082015250565b60006162ea60258361540a565b91506162f58261628e565b604082019050919050565b60006020820190508181036000830152616319816162dd565b9050919050565b7f556e697377617056324c6962726172793a204944454e544943414c5f4144445260008201527f4553534553000000000000000000000000000000000000000000000000000000602082015250565b600061637c60258361540a565b915061638782616320565b604082019050919050565b600060208201905081810360008301526163ab8161636f565b9050919050565b7f556e697377617056324c6962726172793a205a45524f5f414444524553530000600082015250565b60006163e8601e8361540a565b91506163f3826163b2565b602082019050919050565b60006020820190508181036000830152616417816163db565b9050919050565b60006040820190506164336000830185615251565b6164406020830184615251565b9392505050565b60008151905061645681614a30565b92915050565b600060208284031215616472576164716149f4565b5b600061648084828501616447565b91505092915050565b600061649482614a5c565b915061649f83614a5c565b9250817fffffffffffffffffffffffffffffffffffffffffffffffffffffffffffffffff04831182151516156164d8576164d7615487565b5b828202905092915050565b7f64732d6d6174682d6d756c2d6f766572666c6f77000000000000000000000000600082015250565b600061651960148361540a565b9150616524826164e3565b602082019050919050565b600060208201905081810360008301526165488161650c565b9050919050565b7f64732d6d6174682d6164642d6f766572666c6f77000000000000000000000000600082015250565b600061658560148361540a565b91506165908261654f565b602082019050919050565b600060208201905081810360008301526165b481616578565b905091905056fea2646970667358221220f9b0f06912de65ca82b76c3d5349357ddec7218c5c6a4e78c4d0b2dabb848ee664736f6c634300080a0033",
    "linkReferences": {},
    "deployedLinkReferences": {}
}